{
  "contractName": "IdentityVerification",
  "abi": [
    {
      "inputs": [
        {
          "internalType": "address",
          "name": "",
          "type": "address"
        }
      ],
      "name": "userFingerprints",
      "outputs": [
        {
          "internalType": "string",
          "name": "",
          "type": "string"
        }
      ],
      "stateMutability": "view",
      "type": "function"
    },
    {
      "inputs": [
        {
          "internalType": "string",
          "name": "fingerprint",
          "type": "string"
        }
      ],
      "name": "registerUser",
      "outputs": [],
      "stateMutability": "nonpayable",
      "type": "function"
    },
    {
      "inputs": [
        {
          "internalType": "address",
          "name": "userAddress",
          "type": "address"
        },
        {
          "internalType": "string",
          "name": "fingerprint",
          "type": "string"
        }
      ],
      "name": "verifyFingerprint",
      "outputs": [
        {
          "internalType": "bool",
          "name": "",
          "type": "bool"
        }
      ],
      "stateMutability": "view",
      "type": "function"
    },
    {
      "inputs": [
        {
          "internalType": "address",
          "name": "userAddress",
          "type": "address"
        }
      ],
      "name": "getFingerprint",
      "outputs": [
        {
          "internalType": "string",
          "name": "",
          "type": "string"
        }
      ],
      "stateMutability": "view",
      "type": "function"
    }
  ],
  "bytecode": "0x608060405234801561001057600080fd5b50610a5b806100206000396000f3fe608060405234801561001057600080fd5b506004361061004c5760003560e01c80636c6c1e9014610051578063704f1b941461008157806396c8cdaf1461009d578063e2f9dcbd146100cd575b600080fd5b61006b60048036038101906100669190610394565b6100fd565b6040516100789190610451565b60405180910390f35b61009b600480360381019061009691906105a8565b6101cd565b005b6100b760048036038101906100b291906105f1565b61021c565b6040516100c49190610668565b60405180910390f35b6100e760048036038101906100e29190610394565b610282565b6040516100f49190610451565b60405180910390f35b60606000808373ffffffffffffffffffffffffffffffffffffffff1673ffffffffffffffffffffffffffffffffffffffff1681526020019081526020016000208054610148906106b2565b80601f0160208091040260200160405190810160405280929190818152602001828054610174906106b2565b80156101c15780601f10610196576101008083540402835291602001916101c1565b820191906000526020600020905b8154815290600101906020018083116101a457829003601f168201915b50505050509050919050565b806000803373ffffffffffffffffffffffffffffffffffffffff1673ffffffffffffffffffffffffffffffffffffffff16815260200190815260200160002090816102189190610899565b5050565b600081805190602001206000808573ffffffffffffffffffffffffffffffffffffffff1673ffffffffffffffffffffffffffffffffffffffff1681526020019081526020016000206040516102719190610a0e565b604051809103902014905092915050565b600060205280600052604060002060009150905080546102a1906106b2565b80601f01602080910402602001604051908101604052809291908181526020018280546102cd906106b2565b801561031a5780601f106102ef5761010080835404028352916020019161031a565b820191906000526020600020905b8154815290600101906020018083116102fd57829003601f168201915b505050505081565b6000604051905090565b600080fd5b600080fd5b600073ffffffffffffffffffffffffffffffffffffffff82169050919050565b600061036182610336565b9050919050565b61037181610356565b811461037c57600080fd5b50565b60008135905061038e81610368565b92915050565b6000602082840312156103aa576103a961032c565b5b60006103b88482850161037f565b91505092915050565b600081519050919050565b600082825260208201905092915050565b60005b838110156103fb5780820151818401526020810190506103e0565b60008484015250505050565b6000601f19601f8301169050919050565b6000610423826103c1565b61042d81856103cc565b935061043d8185602086016103dd565b61044681610407565b840191505092915050565b6000602082019050818103600083015261046b8184610418565b905092915050565b600080fd5b600080fd5b7f4e487b7100000000000000000000000000000000000000000000000000000000600052604160045260246000fd5b6104b582610407565b810181811067ffffffffffffffff821117156104d4576104d361047d565b5b80604052505050565b60006104e7610322565b90506104f382826104ac565b919050565b600067ffffffffffffffff8211156105135761051261047d565b5b61051c82610407565b9050602081019050919050565b82818337600083830152505050565b600061054b610546846104f8565b6104dd565b90508281526020810184848401111561056757610566610478565b5b610572848285610529565b509392505050565b600082601f83011261058f5761058e610473565b5b813561059f848260208601610538565b91505092915050565b6000602082840312156105be576105bd61032c565b5b600082013567ffffffffffffffff8111156105dc576105db610331565b5b6105e88482850161057a565b91505092915050565b600080604083850312156106085761060761032c565b5b60006106168582860161037f565b925050602083013567ffffffffffffffff81111561063757610636610331565b5b6106438582860161057a565b9150509250929050565b60008115159050919050565b6106628161064d565b82525050565b600060208201905061067d6000830184610659565b92915050565b7f4e487b7100000000000000000000000000000000000000000000000000000000600052602260045260246000fd5b600060028204905060018216806106ca57607f821691505b6020821081036106dd576106dc610683565b5b50919050565b60008190508160005260206000209050919050565b60006020601f8301049050919050565b600082821b905092915050565b6000600883026107457fffffffffffffffffffffffffffffffffffffffffffffffffffffffffffffffff82610708565b61074f8683610708565b95508019841693508086168417925050509392505050565b6000819050919050565b6000819050919050565b600061079661079161078c84610767565b610771565b610767565b9050919050565b6000819050919050565b6107b08361077b565b6107c46107bc8261079d565b848454610715565b825550505050565b600090565b6107d96107cc565b6107e48184846107a7565b505050565b5b81811015610808576107fd6000826107d1565b6001810190506107ea565b5050565b601f82111561084d5761081e816106e3565b610827846106f8565b81016020851015610836578190505b61084a610842856106f8565b8301826107e9565b50505b505050565b600082821c905092915050565b600061087060001984600802610852565b1980831691505092915050565b6000610889838361085f565b9150826002028217905092915050565b6108a2826103c1565b67ffffffffffffffff8111156108bb576108ba61047d565b5b6108c582546106b2565b6108d082828561080c565b600060209050601f83116001811461090357600084156108f1578287015190505b6108fb858261087d565b865550610963565b601f198416610911866106e3565b60005b8281101561093957848901518255600182019150602085019450602081019050610914565b868310156109565784890151610952601f89168261085f565b8355505b6001600288020188555050505b505050505050565b600081905092915050565b60008190508160005260206000209050919050565b60008154610998816106b2565b6109a2818661096b565b945060018216600081146109bd57600181146109d257610a05565b60ff1983168652811515820286019350610a05565b6109db85610976565b60005b838110156109fd578154818901526001820191506020810190506109de565b838801955050505b50505092915050565b6000610a1a828461098b565b91508190509291505056fea2646970667358221220140fd4a5e32a317f5e7c0e8c98d407ef41a0e0cdd0b2c2224899db27e12c322164736f6c63430008110033",
  "immutableReferences": {},
  "source": "pragma solidity ^0.8.0;\r\n\r\ncontract IdentityVerification {\r\n    mapping(address => string) public userFingerprints;\r\n\r\n    function registerUser(string memory fingerprint) public {\r\n        userFingerprints[msg.sender] = fingerprint;\r\n    }\r\n\r\n    function verifyFingerprint(address userAddress, string memory fingerprint) public view returns (bool) {\r\n        return keccak256(bytes(userFingerprints[userAddress])) == keccak256(bytes(fingerprint));\r\n    }\r\n\r\n    function getFingerprint(address userAddress) public view returns (string memory) {\r\n        return userFingerprints[userAddress];\r\n    }\r\n}",
  "sourcePath": "D:\\KLU\\Projects\\Rustling\\Blockchain pow ZT Identity\\blockchain-zero-trust\\contracts\\IdentityVerification.sol",
  "compiler": {
    "name": "solc",
    "version": "0.8.17+commit.8df45f5f.Emscripten.clang"
  },
  "schemaVersion": "3.4.16",
  "updatedAt": "2025-03-11T02:15:45.531Z",
  "devdoc": {
    "kind": "dev",
    "methods": {},
    "version": 1
  },
  "userdoc": {
    "kind": "user",
    "methods": {},
    "version": 1
  }
}