{
  "contractName": "IdentityVerification",
  "abi": [
    {
      "anonymous": false,
      "inputs": [
        {
          "indexed": true,
          "internalType": "address",
          "name": "user",
          "type": "address"
        },
        {
          "indexed": false,
          "internalType": "string",
          "name": "email",
          "type": "string"
        }
      ],
      "name": "FingerprintUpdated",
      "type": "event"
    },
    {
      "anonymous": false,
      "inputs": [
        {
          "indexed": true,
          "internalType": "address",
          "name": "user",
          "type": "address"
        },
        {
          "indexed": false,
          "internalType": "bool",
          "name": "success",
          "type": "bool"
        }
      ],
      "name": "LoginAttempt",
      "type": "event"
    },
    {
      "anonymous": false,
      "inputs": [
        {
          "indexed": true,
          "internalType": "address",
          "name": "user",
          "type": "address"
        },
        {
          "indexed": false,
          "internalType": "string",
          "name": "email",
          "type": "string"
        }
      ],
      "name": "UserRegistered",
      "type": "event"
    },
    {
      "inputs": [
        {
          "internalType": "string",
          "name": "email",
          "type": "string"
        },
        {
          "internalType": "string",
          "name": "password",
          "type": "string"
        },
        {
          "internalType": "string",
          "name": "fingerprint",
          "type": "string"
        }
      ],
      "name": "registerUser",
      "outputs": [],
      "stateMutability": "nonpayable",
      "type": "function"
    },
    {
      "inputs": [
        {
          "internalType": "string",
          "name": "email",
          "type": "string"
        },
        {
          "internalType": "string",
          "name": "password",
          "type": "string"
        },
        {
          "internalType": "string",
          "name": "fingerprint",
          "type": "string"
        }
      ],
      "name": "verifyLogin",
      "outputs": [
        {
          "internalType": "bool",
          "name": "",
          "type": "bool"
        }
      ],
      "stateMutability": "view",
      "type": "function",
      "constant": true
    },
    {
      "inputs": [
        {
          "internalType": "string",
          "name": "email",
          "type": "string"
        }
      ],
      "name": "getUserByEmail",
      "outputs": [
        {
          "internalType": "string",
          "name": "",
          "type": "string"
        },
        {
          "internalType": "bytes32",
          "name": "",
          "type": "bytes32"
        },
        {
          "internalType": "bytes32",
          "name": "",
          "type": "bytes32"
        }
      ],
      "stateMutability": "view",
      "type": "function",
      "constant": true
    },
    {
      "inputs": [
        {
          "internalType": "address",
          "name": "userAddress",
          "type": "address"
        }
      ],
      "name": "getUser",
      "outputs": [
        {
          "internalType": "string",
          "name": "",
          "type": "string"
        },
        {
          "internalType": "bytes32",
          "name": "",
          "type": "bytes32"
        },
        {
          "internalType": "bytes32",
          "name": "",
          "type": "bytes32"
        }
      ],
      "stateMutability": "view",
      "type": "function",
      "constant": true
    },
    {
      "inputs": [
        {
          "internalType": "string",
          "name": "email",
          "type": "string"
        },
        {
          "internalType": "string",
          "name": "password",
          "type": "string"
        },
        {
          "internalType": "string",
          "name": "newFingerprint",
          "type": "string"
        }
      ],
      "name": "updateFingerprint",
      "outputs": [],
      "stateMutability": "nonpayable",
      "type": "function"
    }
  ],
  "bytecode": "0x608060405234801561001057600080fd5b50611541806100206000396000f3fe608060405234801561001057600080fd5b50600436106100575760003560e01c806302cdcd891461005c57806318046ae11461008c5780636f77926b146100be578063c0d1528d146100f0578063d637dcfa1461010c575b600080fd5b61007660048036038101906100719190610d0b565b610128565b6040516100839190610dcd565b60405180910390f35b6100a660048036038101906100a19190610de8565b610356565b6040516100b593929190610ec9565b60405180910390f35b6100d860048036038101906100d39190610f65565b610539565b6040516100e793929190610ec9565b60405180910390f35b61010a60048036038101906101059190610d0b565b6106de565b005b61012660048036038101906101219190610d0b565b6108dc565b005b60008060016000866040516020016101409190610fce565b60405160208183030381529060405280519060200120815260200190815260200160002060009054906101000a900473ffffffffffffffffffffffffffffffffffffffff169050600073ffffffffffffffffffffffffffffffffffffffff168173ffffffffffffffffffffffffffffffffffffffff16036101f6576040517f08c379a00000000000000000000000000000000000000000000000000000000081526004016101ed90611031565b60405180910390fd5b60008060008373ffffffffffffffffffffffffffffffffffffffff1673ffffffffffffffffffffffffffffffffffffffff16815260200190815260200160002060405180606001604052908160008201805461025190611080565b80601f016020809104026020016040519081016040528092919081815260200182805461027d90611080565b80156102ca5780601f1061029f576101008083540402835291602001916102ca565b820191906000526020600020905b8154815290600101906020018083116102ad57829003601f168201915b505050505081526020016001820154815260200160028201548152505090508060200151856040516020016102ff9190610fce565b6040516020818303038152906040528051906020012014801561034b57508060400151846040516020016103339190610fce565b60405160208183030381529060405280519060200120145b925050509392505050565b6060600080600060016000866040516020016103729190610fce565b60405160208183030381529060405280519060200120815260200190815260200160002060009054906101000a900473ffffffffffffffffffffffffffffffffffffffff169050600073ffffffffffffffffffffffffffffffffffffffff168173ffffffffffffffffffffffffffffffffffffffff1603610428576040517f08c379a000000000000000000000000000000000000000000000000000000000815260040161041f90611031565b60405180910390fd5b60008060008373ffffffffffffffffffffffffffffffffffffffff1673ffffffffffffffffffffffffffffffffffffffff16815260200190815260200160002060405180606001604052908160008201805461048390611080565b80601f01602080910402602001604051908101604052809291908181526020018280546104af90611080565b80156104fc5780601f106104d1576101008083540402835291602001916104fc565b820191906000526020600020905b8154815290600101906020018083116104df57829003601f168201915b5050505050815260200160018201548152602001600282015481525050905080600001518160200151826040015194509450945050509193909250565b606060008060008060008673ffffffffffffffffffffffffffffffffffffffff1673ffffffffffffffffffffffffffffffffffffffff168152602001908152602001600020600001805461058c90611080565b9050116105ce576040517f08c379a00000000000000000000000000000000000000000000000000000000081526004016105c590611031565b60405180910390fd5b60008060008673ffffffffffffffffffffffffffffffffffffffff1673ffffffffffffffffffffffffffffffffffffffff16815260200190815260200160002060405180606001604052908160008201805461062990611080565b80601f016020809104026020016040519081016040528092919081815260200182805461065590611080565b80156106a25780601f10610677576101008083540402835291602001916106a2565b820191906000526020600020905b81548152906001019060200180831161068557829003601f168201915b50505050508152602001600182015481526020016002820154815250509050806000015181602001518260400151935093509350509193909250565b600060016000856040516020016106f59190610fce565b60405160208183030381529060405280519060200120815260200190815260200160002060009054906101000a900473ffffffffffffffffffffffffffffffffffffffff1690503373ffffffffffffffffffffffffffffffffffffffff168173ffffffffffffffffffffffffffffffffffffffff16146107aa576040517f08c379a00000000000000000000000000000000000000000000000000000000081526004016107a1906110fd565b60405180910390fd5b60008060003373ffffffffffffffffffffffffffffffffffffffff1673ffffffffffffffffffffffffffffffffffffffff16815260200190815260200160002090508060010154846040516020016108029190610fce565b6040516020818303038152906040528051906020012014610858576040517f08c379a000000000000000000000000000000000000000000000000000000000815260040161084f90611169565b60405180910390fd5b826040516020016108699190610fce565b6040516020818303038152906040528051906020012081600201819055503373ffffffffffffffffffffffffffffffffffffffff167ffa8d96b120c1f6c5c916c6ee4c1a4e2a81ca386b471cd366d829d88c463e6037866040516108cd9190611189565b60405180910390a25050505050565b6000836040516020016108ef9190610fce565b60405160208183030381529060405280519060200120905060008060003373ffffffffffffffffffffffffffffffffffffffff1673ffffffffffffffffffffffffffffffffffffffff168152602001908152602001600020600001805461095590611080565b905014610997576040517f08c379a000000000000000000000000000000000000000000000000000000000815260040161098e906111f7565b60405180910390fd5b600073ffffffffffffffffffffffffffffffffffffffff166001600083815260200190815260200160002060009054906101000a900473ffffffffffffffffffffffffffffffffffffffff1673ffffffffffffffffffffffffffffffffffffffff1614610a39576040517f08c379a0000000000000000000000000000000000000000000000000000000008152600401610a3090611263565b60405180910390fd5b604051806060016040528085815260200184604051602001610a5b9190610fce565b60405160208183030381529060405280519060200120815260200183604051602001610a879190610fce565b604051602081830303815290604052805190602001208152506000803373ffffffffffffffffffffffffffffffffffffffff1673ffffffffffffffffffffffffffffffffffffffff1681526020019081526020016000206000820151816000019081610af39190611439565b506020820151816001015560408201518160020155905050336001600083815260200190815260200160002060006101000a81548173ffffffffffffffffffffffffffffffffffffffff021916908373ffffffffffffffffffffffffffffffffffffffff1602179055503373ffffffffffffffffffffffffffffffffffffffff167f48cac28ad4dc618e15f4c2dd5e97751182f166de97b25618318b2112aa951a2f85604051610ba39190611189565b60405180910390a250505050565b6000604051905090565b600080fd5b600080fd5b600080fd5b600080fd5b6000601f19601f8301169050919050565b7f4e487b7100000000000000000000000000000000000000000000000000000000600052604160045260246000fd5b610c1882610bcf565b810181811067ffffffffffffffff82111715610c3757610c36610be0565b5b80604052505050565b6000610c4a610bb1565b9050610c568282610c0f565b919050565b600067ffffffffffffffff821115610c7657610c75610be0565b5b610c7f82610bcf565b9050602081019050919050565b82818337600083830152505050565b6000610cae610ca984610c5b565b610c40565b905082815260208101848484011115610cca57610cc9610bca565b5b610cd5848285610c8c565b509392505050565b600082601f830112610cf257610cf1610bc5565b5b8135610d02848260208601610c9b565b91505092915050565b600080600060608486031215610d2457610d23610bbb565b5b600084013567ffffffffffffffff811115610d4257610d41610bc0565b5b610d4e86828701610cdd565b935050602084013567ffffffffffffffff811115610d6f57610d6e610bc0565b5b610d7b86828701610cdd565b925050604084013567ffffffffffffffff811115610d9c57610d9b610bc0565b5b610da886828701610cdd565b9150509250925092565b60008115159050919050565b610dc781610db2565b82525050565b6000602082019050610de26000830184610dbe565b92915050565b600060208284031215610dfe57610dfd610bbb565b5b600082013567ffffffffffffffff811115610e1c57610e1b610bc0565b5b610e2884828501610cdd565b91505092915050565b600081519050919050565b600082825260208201905092915050565b60005b83811015610e6b578082015181840152602081019050610e50565b60008484015250505050565b6000610e8282610e31565b610e8c8185610e3c565b9350610e9c818560208601610e4d565b610ea581610bcf565b840191505092915050565b6000819050919050565b610ec381610eb0565b82525050565b60006060820190508181036000830152610ee38186610e77565b9050610ef26020830185610eba565b610eff6040830184610eba565b949350505050565b600073ffffffffffffffffffffffffffffffffffffffff82169050919050565b6000610f3282610f07565b9050919050565b610f4281610f27565b8114610f4d57600080fd5b50565b600081359050610f5f81610f39565b92915050565b600060208284031215610f7b57610f7a610bbb565b5b6000610f8984828501610f50565b91505092915050565b600081905092915050565b6000610fa882610e31565b610fb28185610f92565b9350610fc2818560208601610e4d565b80840191505092915050565b6000610fda8284610f9d565b915081905092915050565b7f55736572206e6f7420666f756e64210000000000000000000000000000000000600082015250565b600061101b600f83610e3c565b915061102682610fe5565b602082019050919050565b6000602082019050818103600083015261104a8161100e565b9050919050565b7f4e487b7100000000000000000000000000000000000000000000000000000000600052602260045260246000fd5b6000600282049050600182168061109857607f821691505b6020821081036110ab576110aa611051565b5b50919050565b7f556e617574686f72697a656420616374696f6e21000000000000000000000000600082015250565b60006110e7601483610e3c565b91506110f2826110b1565b602082019050919050565b60006020820190508181036000830152611116816110da565b9050919050565b7f496e636f72726563742070617373776f72642100000000000000000000000000600082015250565b6000611153601383610e3c565b915061115e8261111d565b602082019050919050565b6000602082019050818103600083015261118281611146565b9050919050565b600060208201905081810360008301526111a38184610e77565b905092915050565b7f5573657220616c72656164792072656769737465726564210000000000000000600082015250565b60006111e1601883610e3c565b91506111ec826111ab565b602082019050919050565b60006020820190508181036000830152611210816111d4565b9050919050565b7f456d61696c20616c726561647920696e20757365210000000000000000000000600082015250565b600061124d601583610e3c565b915061125882611217565b602082019050919050565b6000602082019050818103600083015261127c81611240565b9050919050565b60008190508160005260206000209050919050565b60006020601f8301049050919050565b600082821b905092915050565b6000600883026112e57fffffffffffffffffffffffffffffffffffffffffffffffffffffffffffffffff826112a8565b6112ef86836112a8565b95508019841693508086168417925050509392505050565b6000819050919050565b6000819050919050565b600061133661133161132c84611307565b611311565b611307565b9050919050565b6000819050919050565b6113508361131b565b61136461135c8261133d565b8484546112b5565b825550505050565b600090565b61137961136c565b611384818484611347565b505050565b5b818110156113a85761139d600082611371565b60018101905061138a565b5050565b601f8211156113ed576113be81611283565b6113c784611298565b810160208510156113d6578190505b6113ea6113e285611298565b830182611389565b50505b505050565b600082821c905092915050565b6000611410600019846008026113f2565b1980831691505092915050565b600061142983836113ff565b9150826002028217905092915050565b61144282610e31565b67ffffffffffffffff81111561145b5761145a610be0565b5b6114658254611080565b6114708282856113ac565b600060209050601f8311600181146114a35760008415611491578287015190505b61149b858261141d565b865550611503565b601f1984166114b186611283565b60005b828110156114d9578489015182556001820191506020850194506020810190506114b4565b868310156114f657848901516114f2601f8916826113ff565b8355505b6001600288020188555050505b50505050505056fea2646970667358221220a2bdd42c5bec441bae29bc8cffb32d6d12b6d054be1c8f158d56dd062f81b7c464736f6c63430008110033",
  "immutableReferences": {},
  "source": "// SPDX-License-Identifier: MIT\r\npragma solidity ^0.8.17;\r\n\r\ncontract IdentityVerification {\r\n    struct User {\r\n        string email;\r\n        bytes32 passwordHash;\r\n        bytes32 fingerprintHash;\r\n    }\r\n\r\n    mapping(address => User) private users;\r\n    mapping(bytes32 => address) private emailToAddress; //  Use `bytes32` instead of `string`\r\n\r\n    event UserRegistered(address indexed user, string email);\r\n    event LoginAttempt(address indexed user, bool success);\r\n    event FingerprintUpdated(address indexed user, string email);\r\n\r\n    function registerUser(string memory email, string memory password, string memory fingerprint) public {\r\n        bytes32 emailHash = keccak256(abi.encodePacked(email));\r\n\r\n        require(bytes(users[msg.sender].email).length == 0, \"User already registered!\");\r\n        require(emailToAddress[emailHash] == address(0), \"Email already in use!\");\r\n\r\n        users[msg.sender] = User(email, keccak256(abi.encodePacked(password)), keccak256(abi.encodePacked(fingerprint)));\r\n        emailToAddress[emailHash] = msg.sender;\r\n\r\n        emit UserRegistered(msg.sender, email);\r\n    }\r\n\r\n    function verifyLogin(string memory email, string memory password, string memory fingerprint) public view returns (bool) {\r\n    address userAddress = emailToAddress[keccak256(abi.encodePacked(email))];\r\n    require(userAddress != address(0), \"User not found!\");\r\n\r\n    User memory user = users[userAddress];\r\n\r\n    return (keccak256(abi.encodePacked(password)) == user.passwordHash &&\r\n            keccak256(abi.encodePacked(fingerprint)) == user.fingerprintHash);\r\n}\r\n\r\n\r\n    function getUserByEmail(string memory email) public view returns (string memory, bytes32, bytes32) {\r\n        address userAddress = emailToAddress[keccak256(abi.encodePacked(email))];\r\n        require(userAddress != address(0), \"User not found!\");\r\n\r\n        User memory user = users[userAddress];\r\n        return (user.email, user.passwordHash, user.fingerprintHash);\r\n    }\r\n\r\n    function getUser(address userAddress) public view returns (string memory, bytes32, bytes32) {\r\n        require(bytes(users[userAddress].email).length > 0, \"User not found!\");\r\n        User memory user = users[userAddress];\r\n        return (user.email, user.passwordHash, user.fingerprintHash);\r\n    }\r\n\r\n    function updateFingerprint(string memory email, string memory password, string memory newFingerprint) public {\r\n        address userAddress = emailToAddress[keccak256(abi.encodePacked(email))];\r\n        require(userAddress == msg.sender, \"Unauthorized action!\");\r\n\r\n        User storage user = users[msg.sender];\r\n        require(keccak256(abi.encodePacked(password)) == user.passwordHash, \"Incorrect password!\");\r\n\r\n\r\n        user.fingerprintHash = keccak256(abi.encodePacked(newFingerprint));\r\n\r\n        emit FingerprintUpdated(msg.sender, email);\r\n    }\r\n}\r\n",
  "sourcePath": "D:\\KLU\\Projects\\Rustling\\Blockchain pow ZT Identity\\blockchain-zero-trust\\contracts\\IdentityVerification.sol",
  "compiler": {
    "name": "solc",
    "version": "0.8.17+commit.8df45f5f.Emscripten.clang"
  },
  "schemaVersion": "3.4.16",
  "updatedAt": "2025-03-19T07:08:08.637Z",
  "networkType": "ethereum",
  "devdoc": {
    "kind": "dev",
    "methods": {},
    "version": 1
  },
  "userdoc": {
    "kind": "user",
    "methods": {},
    "version": 1
  }
}