{
  "contractName": "IdentityVerification",
  "abi": [
    {
      "anonymous": false,
      "inputs": [
        {
          "indexed": true,
          "internalType": "address",
          "name": "user",
          "type": "address"
        },
        {
          "indexed": false,
          "internalType": "string",
          "name": "email",
          "type": "string"
        }
      ],
      "name": "FingerprintUpdated",
      "type": "event"
    },
    {
      "anonymous": false,
      "inputs": [
        {
          "indexed": true,
          "internalType": "address",
          "name": "user",
          "type": "address"
        },
        {
          "indexed": false,
          "internalType": "bool",
          "name": "success",
          "type": "bool"
        }
      ],
      "name": "LoginAttempt",
      "type": "event"
    },
    {
      "anonymous": false,
      "inputs": [
        {
          "indexed": true,
          "internalType": "address",
          "name": "user",
          "type": "address"
        },
        {
          "indexed": false,
          "internalType": "string",
          "name": "email",
          "type": "string"
        }
      ],
      "name": "UserRegistered",
      "type": "event"
    },
    {
      "inputs": [
        {
          "internalType": "string",
          "name": "email",
          "type": "string"
        },
        {
          "internalType": "string",
          "name": "password",
          "type": "string"
        },
        {
          "internalType": "string",
          "name": "fingerprint",
          "type": "string"
        }
      ],
      "name": "registerUser",
      "outputs": [],
      "stateMutability": "nonpayable",
      "type": "function"
    },
    {
      "inputs": [
        {
          "internalType": "string",
          "name": "email",
          "type": "string"
        },
        {
          "internalType": "string",
          "name": "password",
          "type": "string"
        },
        {
          "internalType": "string",
          "name": "fingerprint",
          "type": "string"
        }
      ],
      "name": "verifyLogin",
      "outputs": [
        {
          "internalType": "bool",
          "name": "",
          "type": "bool"
        },
        {
          "internalType": "string",
          "name": "",
          "type": "string"
        }
      ],
      "stateMutability": "view",
      "type": "function",
      "constant": true
    },
    {
      "inputs": [
        {
          "internalType": "string",
          "name": "email",
          "type": "string"
        }
      ],
      "name": "getUserByEmail",
      "outputs": [
        {
          "internalType": "string",
          "name": "",
          "type": "string"
        },
        {
          "internalType": "bytes32",
          "name": "",
          "type": "bytes32"
        },
        {
          "internalType": "bytes32",
          "name": "",
          "type": "bytes32"
        }
      ],
      "stateMutability": "view",
      "type": "function",
      "constant": true
    },
    {
      "inputs": [
        {
          "internalType": "address",
          "name": "userAddress",
          "type": "address"
        }
      ],
      "name": "getUser",
      "outputs": [
        {
          "internalType": "string",
          "name": "",
          "type": "string"
        },
        {
          "internalType": "bytes32",
          "name": "",
          "type": "bytes32"
        },
        {
          "internalType": "bytes32",
          "name": "",
          "type": "bytes32"
        }
      ],
      "stateMutability": "view",
      "type": "function",
      "constant": true
    },
    {
      "inputs": [
        {
          "internalType": "string",
          "name": "email",
          "type": "string"
        },
        {
          "internalType": "string",
          "name": "password",
          "type": "string"
        },
        {
          "internalType": "string",
          "name": "newFingerprint",
          "type": "string"
        }
      ],
      "name": "updateFingerprint",
      "outputs": [],
      "stateMutability": "nonpayable",
      "type": "function"
    }
  ],
  "bytecode": "0x608060405234801561001057600080fd5b5061162c806100206000396000f3fe608060405234801561001057600080fd5b50600436106100575760003560e01c806302cdcd891461005c57806318046ae11461008d5780636f77926b146100bf578063c0d1528d146100f1578063d637dcfa1461010d575b600080fd5b61007660048036038101906100719190610de1565b610129565b604051610084929190610f22565b60405180910390f35b6100a760048036038101906100a29190610f52565b61042c565b6040516100b693929190610fb4565b60405180910390f35b6100d960048036038101906100d49190611050565b61060f565b6040516100e893929190610fb4565b60405180910390f35b61010b60048036038101906101069190610de1565b6107b4565b005b61012760048036038101906101229190610de1565b6109b2565b005b6000606060008560405160200161014091906110b9565b60405160208183030381529060405280519060200120905060006001600083815260200190815260200160002060009054906101000a900473ffffffffffffffffffffffffffffffffffffffff169050600073ffffffffffffffffffffffffffffffffffffffff168173ffffffffffffffffffffffffffffffffffffffff16036102075760006040518060400160405280600f81526020017f55736572206e6f7420666f756e64210000000000000000000000000000000000815250935093505050610424565b60008060008373ffffffffffffffffffffffffffffffffffffffff1673ffffffffffffffffffffffffffffffffffffffff168152602001908152602001600020604051806060016040529081600082018054610262906110ff565b80601f016020809104026020016040519081016040528092919081815260200182805461028e906110ff565b80156102db5780601f106102b0576101008083540402835291602001916102db565b820191906000526020600020905b8154815290600101906020018083116102be57829003601f168201915b5050505050815260200160018201548152602001600282015481525050905080602001518760405160200161031091906110b9565b604051602081830303815290604052805190602001201461036f5760006040518060400160405280601381526020017f496e636f72726563742070617373776f7264210000000000000000000000000081525094509450505050610424565b80604001518660405160200161038591906110b9565b60405160208183030381529060405280519060200120146103e45760006040518060400160405280601681526020017f496e636f72726563742066696e6765727072696e74210000000000000000000081525094509450505050610424565b60016040518060400160405280601181526020017f4c6f67696e207375636365737366756c21000000000000000000000000000000815250945094505050505b935093915050565b60606000806000600160008660405160200161044891906110b9565b60405160208183030381529060405280519060200120815260200190815260200160002060009054906101000a900473ffffffffffffffffffffffffffffffffffffffff169050600073ffffffffffffffffffffffffffffffffffffffff168173ffffffffffffffffffffffffffffffffffffffff16036104fe576040517f08c379a00000000000000000000000000000000000000000000000000000000081526004016104f59061117c565b60405180910390fd5b60008060008373ffffffffffffffffffffffffffffffffffffffff1673ffffffffffffffffffffffffffffffffffffffff168152602001908152602001600020604051806060016040529081600082018054610559906110ff565b80601f0160208091040260200160405190810160405280929190818152602001828054610585906110ff565b80156105d25780601f106105a7576101008083540402835291602001916105d2565b820191906000526020600020905b8154815290600101906020018083116105b557829003601f168201915b5050505050815260200160018201548152602001600282015481525050905080600001518160200151826040015194509450945050509193909250565b606060008060008060008673ffffffffffffffffffffffffffffffffffffffff1673ffffffffffffffffffffffffffffffffffffffff1681526020019081526020016000206000018054610662906110ff565b9050116106a4576040517f08c379a000000000000000000000000000000000000000000000000000000000815260040161069b9061117c565b60405180910390fd5b60008060008673ffffffffffffffffffffffffffffffffffffffff1673ffffffffffffffffffffffffffffffffffffffff1681526020019081526020016000206040518060600160405290816000820180546106ff906110ff565b80601f016020809104026020016040519081016040528092919081815260200182805461072b906110ff565b80156107785780601f1061074d57610100808354040283529160200191610778565b820191906000526020600020905b81548152906001019060200180831161075b57829003601f168201915b50505050508152602001600182015481526020016002820154815250509050806000015181602001518260400151935093509350509193909250565b600060016000856040516020016107cb91906110b9565b60405160208183030381529060405280519060200120815260200190815260200160002060009054906101000a900473ffffffffffffffffffffffffffffffffffffffff1690503373ffffffffffffffffffffffffffffffffffffffff168173ffffffffffffffffffffffffffffffffffffffff1614610880576040517f08c379a0000000000000000000000000000000000000000000000000000000008152600401610877906111e8565b60405180910390fd5b60008060003373ffffffffffffffffffffffffffffffffffffffff1673ffffffffffffffffffffffffffffffffffffffff16815260200190815260200160002090508060010154846040516020016108d891906110b9565b604051602081830303815290604052805190602001201461092e576040517f08c379a000000000000000000000000000000000000000000000000000000000815260040161092590611254565b60405180910390fd5b8260405160200161093f91906110b9565b6040516020818303038152906040528051906020012081600201819055503373ffffffffffffffffffffffffffffffffffffffff167ffa8d96b120c1f6c5c916c6ee4c1a4e2a81ca386b471cd366d829d88c463e6037866040516109a39190611274565b60405180910390a25050505050565b6000836040516020016109c591906110b9565b60405160208183030381529060405280519060200120905060008060003373ffffffffffffffffffffffffffffffffffffffff1673ffffffffffffffffffffffffffffffffffffffff1681526020019081526020016000206000018054610a2b906110ff565b905014610a6d576040517f08c379a0000000000000000000000000000000000000000000000000000000008152600401610a64906112e2565b60405180910390fd5b600073ffffffffffffffffffffffffffffffffffffffff166001600083815260200190815260200160002060009054906101000a900473ffffffffffffffffffffffffffffffffffffffff1673ffffffffffffffffffffffffffffffffffffffff1614610b0f576040517f08c379a0000000000000000000000000000000000000000000000000000000008152600401610b069061134e565b60405180910390fd5b604051806060016040528085815260200184604051602001610b3191906110b9565b60405160208183030381529060405280519060200120815260200183604051602001610b5d91906110b9565b604051602081830303815290604052805190602001208152506000803373ffffffffffffffffffffffffffffffffffffffff1673ffffffffffffffffffffffffffffffffffffffff1681526020019081526020016000206000820151816000019081610bc99190611524565b506020820151816001015560408201518160020155905050336001600083815260200190815260200160002060006101000a81548173ffffffffffffffffffffffffffffffffffffffff021916908373ffffffffffffffffffffffffffffffffffffffff1602179055503373ffffffffffffffffffffffffffffffffffffffff167f48cac28ad4dc618e15f4c2dd5e97751182f166de97b25618318b2112aa951a2f85604051610c799190611274565b60405180910390a250505050565b6000604051905090565b600080fd5b600080fd5b600080fd5b600080fd5b6000601f19601f8301169050919050565b7f4e487b7100000000000000000000000000000000000000000000000000000000600052604160045260246000fd5b610cee82610ca5565b810181811067ffffffffffffffff82111715610d0d57610d0c610cb6565b5b80604052505050565b6000610d20610c87565b9050610d2c8282610ce5565b919050565b600067ffffffffffffffff821115610d4c57610d4b610cb6565b5b610d5582610ca5565b9050602081019050919050565b82818337600083830152505050565b6000610d84610d7f84610d31565b610d16565b905082815260208101848484011115610da057610d9f610ca0565b5b610dab848285610d62565b509392505050565b600082601f830112610dc857610dc7610c9b565b5b8135610dd8848260208601610d71565b91505092915050565b600080600060608486031215610dfa57610df9610c91565b5b600084013567ffffffffffffffff811115610e1857610e17610c96565b5b610e2486828701610db3565b935050602084013567ffffffffffffffff811115610e4557610e44610c96565b5b610e5186828701610db3565b925050604084013567ffffffffffffffff811115610e7257610e71610c96565b5b610e7e86828701610db3565b9150509250925092565b60008115159050919050565b610e9d81610e88565b82525050565b600081519050919050565b600082825260208201905092915050565b60005b83811015610edd578082015181840152602081019050610ec2565b60008484015250505050565b6000610ef482610ea3565b610efe8185610eae565b9350610f0e818560208601610ebf565b610f1781610ca5565b840191505092915050565b6000604082019050610f376000830185610e94565b8181036020830152610f498184610ee9565b90509392505050565b600060208284031215610f6857610f67610c91565b5b600082013567ffffffffffffffff811115610f8657610f85610c96565b5b610f9284828501610db3565b91505092915050565b6000819050919050565b610fae81610f9b565b82525050565b60006060820190508181036000830152610fce8186610ee9565b9050610fdd6020830185610fa5565b610fea6040830184610fa5565b949350505050565b600073ffffffffffffffffffffffffffffffffffffffff82169050919050565b600061101d82610ff2565b9050919050565b61102d81611012565b811461103857600080fd5b50565b60008135905061104a81611024565b92915050565b60006020828403121561106657611065610c91565b5b60006110748482850161103b565b91505092915050565b600081905092915050565b600061109382610ea3565b61109d818561107d565b93506110ad818560208601610ebf565b80840191505092915050565b60006110c58284611088565b915081905092915050565b7f4e487b7100000000000000000000000000000000000000000000000000000000600052602260045260246000fd5b6000600282049050600182168061111757607f821691505b60208210810361112a576111296110d0565b5b50919050565b7f55736572206e6f7420666f756e64210000000000000000000000000000000000600082015250565b6000611166600f83610eae565b915061117182611130565b602082019050919050565b6000602082019050818103600083015261119581611159565b9050919050565b7f556e617574686f72697a656420616374696f6e21000000000000000000000000600082015250565b60006111d2601483610eae565b91506111dd8261119c565b602082019050919050565b60006020820190508181036000830152611201816111c5565b9050919050565b7f496e636f72726563742070617373776f72642100000000000000000000000000600082015250565b600061123e601383610eae565b915061124982611208565b602082019050919050565b6000602082019050818103600083015261126d81611231565b9050919050565b6000602082019050818103600083015261128e8184610ee9565b905092915050565b7f5573657220616c72656164792072656769737465726564210000000000000000600082015250565b60006112cc601883610eae565b91506112d782611296565b602082019050919050565b600060208201905081810360008301526112fb816112bf565b9050919050565b7f456d61696c20616c726561647920696e20757365210000000000000000000000600082015250565b6000611338601583610eae565b915061134382611302565b602082019050919050565b600060208201905081810360008301526113678161132b565b9050919050565b60008190508160005260206000209050919050565b60006020601f8301049050919050565b600082821b905092915050565b6000600883026113d07fffffffffffffffffffffffffffffffffffffffffffffffffffffffffffffffff82611393565b6113da8683611393565b95508019841693508086168417925050509392505050565b6000819050919050565b6000819050919050565b600061142161141c611417846113f2565b6113fc565b6113f2565b9050919050565b6000819050919050565b61143b83611406565b61144f61144782611428565b8484546113a0565b825550505050565b600090565b611464611457565b61146f818484611432565b505050565b5b818110156114935761148860008261145c565b600181019050611475565b5050565b601f8211156114d8576114a98161136e565b6114b284611383565b810160208510156114c1578190505b6114d56114cd85611383565b830182611474565b50505b505050565b600082821c905092915050565b60006114fb600019846008026114dd565b1980831691505092915050565b600061151483836114ea565b9150826002028217905092915050565b61152d82610ea3565b67ffffffffffffffff81111561154657611545610cb6565b5b61155082546110ff565b61155b828285611497565b600060209050601f83116001811461158e576000841561157c578287015190505b6115868582611508565b8655506115ee565b601f19841661159c8661136e565b60005b828110156115c45784890151825560018201915060208501945060208101905061159f565b868310156115e157848901516115dd601f8916826114ea565b8355505b6001600288020188555050505b50505050505056fea264697066735822122094e7188f19e078b7b1a829de06858b9fabef85e6be5c6a2c89024d7c837dea5864736f6c63430008110033",
  "immutableReferences": {},
  "source": "// SPDX-License-Identifier: MIT\r\npragma solidity ^0.8.17;\r\n\r\ncontract IdentityVerification {\r\n    struct User {\r\n        string email;\r\n        bytes32 passwordHash;\r\n        bytes32 fingerprintHash;\r\n    }\r\n\r\n    mapping(address => User) private users;\r\n    mapping(bytes32 => address) private emailToAddress; //  Use `bytes32` instead of `string`\r\n\r\n    event UserRegistered(address indexed user, string email);\r\n    event LoginAttempt(address indexed user, bool success);\r\n    event FingerprintUpdated(address indexed user, string email);\r\n\r\n    function registerUser(string memory email, string memory password, string memory fingerprint) public {\r\n        bytes32 emailHash = keccak256(abi.encodePacked(email));\r\n\r\n        require(bytes(users[msg.sender].email).length == 0, \"User already registered!\");\r\n        require(emailToAddress[emailHash] == address(0), \"Email already in use!\");\r\n\r\n        users[msg.sender] = User(email, keccak256(abi.encodePacked(password)), keccak256(abi.encodePacked(fingerprint)));\r\n        emailToAddress[emailHash] = msg.sender;\r\n\r\n        emit UserRegistered(msg.sender, email);\r\n    }\r\n\r\n   function verifyLogin(string memory email, string memory password, string memory fingerprint) \r\n    public \r\n    view \r\n    returns (bool, string memory) \r\n{\r\n    bytes32 emailHash = keccak256(abi.encodePacked(email));\r\n    address userAddress = emailToAddress[emailHash];\r\n\r\n    if (userAddress == address(0)) {\r\n        return (false, \"User not found!\");\r\n    }\r\n\r\n    User memory user = users[userAddress];\r\n\r\n    if (keccak256(abi.encodePacked(password)) != user.passwordHash) {\r\n        return (false, \"Incorrect password!\");\r\n    }\r\n\r\n    if (keccak256(abi.encodePacked(fingerprint)) != user.fingerprintHash) {\r\n        return (false, \"Incorrect fingerprint!\");\r\n    }\r\n\r\n    return (true, \"Login successful!\");\r\n}\r\n\r\n\r\n    function getUserByEmail(string memory email) public view returns (string memory, bytes32, bytes32) {\r\n        address userAddress = emailToAddress[keccak256(abi.encodePacked(email))];\r\n        require(userAddress != address(0), \"User not found!\");\r\n\r\n        User memory user = users[userAddress];\r\n        return (user.email, user.passwordHash, user.fingerprintHash);\r\n    }\r\n\r\n    function getUser(address userAddress) public view returns (string memory, bytes32, bytes32) {\r\n        require(bytes(users[userAddress].email).length > 0, \"User not found!\");\r\n        User memory user = users[userAddress];\r\n        return (user.email, user.passwordHash, user.fingerprintHash);\r\n    }\r\n\r\n    function updateFingerprint(string memory email, string memory password, string memory newFingerprint) public {\r\n        address userAddress = emailToAddress[keccak256(abi.encodePacked(email))];\r\n        require(userAddress == msg.sender, \"Unauthorized action!\");\r\n\r\n        User storage user = users[msg.sender];\r\n        require(keccak256(abi.encodePacked(password)) == user.passwordHash, \"Incorrect password!\");\r\n\r\n\r\n        user.fingerprintHash = keccak256(abi.encodePacked(newFingerprint));\r\n\r\n        emit FingerprintUpdated(msg.sender, email);\r\n    }\r\n}\r\n",
  "sourcePath": "D:\\KLU\\Projects\\Rustling\\Blockchain pow ZT Identity\\blockchain-zero-trust\\contracts\\IdentityVerification.sol",
  "compiler": {
    "name": "solc",
    "version": "0.8.17+commit.8df45f5f.Emscripten.clang"
  },
  "schemaVersion": "3.4.16",
  "updatedAt": "2025-03-20T04:39:24.756Z",
  "networkType": "ethereum",
  "devdoc": {
    "kind": "dev",
    "methods": {},
    "version": 1
  },
  "userdoc": {
    "kind": "user",
    "methods": {},
    "version": 1
  }
}