{
  "contractName": "IdentityVerification",
  "abi": [
    {
      "anonymous": false,
      "inputs": [
        {
          "indexed": true,
          "internalType": "address",
          "name": "user",
          "type": "address"
        },
        {
          "indexed": false,
          "internalType": "string",
          "name": "email",
          "type": "string"
        }
      ],
      "name": "FingerprintUpdated",
      "type": "event"
    },
    {
      "anonymous": false,
      "inputs": [
        {
          "indexed": true,
          "internalType": "address",
          "name": "user",
          "type": "address"
        },
        {
          "indexed": false,
          "internalType": "bool",
          "name": "success",
          "type": "bool"
        },
        {
          "indexed": false,
          "internalType": "string",
          "name": "message",
          "type": "string"
        }
      ],
      "name": "LoginAttempt",
      "type": "event"
    },
    {
      "anonymous": false,
      "inputs": [
        {
          "indexed": true,
          "internalType": "address",
          "name": "user",
          "type": "address"
        },
        {
          "indexed": false,
          "internalType": "string",
          "name": "email",
          "type": "string"
        }
      ],
      "name": "UserRegistered",
      "type": "event"
    },
    {
      "inputs": [
        {
          "internalType": "string",
          "name": "email",
          "type": "string"
        },
        {
          "internalType": "string",
          "name": "password",
          "type": "string"
        },
        {
          "internalType": "string",
          "name": "fingerprint",
          "type": "string"
        }
      ],
      "name": "registerUser",
      "outputs": [],
      "stateMutability": "nonpayable",
      "type": "function"
    },
    {
      "inputs": [
        {
          "internalType": "string",
          "name": "email",
          "type": "string"
        },
        {
          "internalType": "string",
          "name": "password",
          "type": "string"
        },
        {
          "internalType": "string",
          "name": "fingerprint",
          "type": "string"
        }
      ],
      "name": "verifyLogin",
      "outputs": [
        {
          "internalType": "bool",
          "name": "",
          "type": "bool"
        },
        {
          "internalType": "string",
          "name": "",
          "type": "string"
        }
      ],
      "stateMutability": "view",
      "type": "function",
      "constant": true
    },
    {
      "inputs": [
        {
          "internalType": "string",
          "name": "email",
          "type": "string"
        },
        {
          "internalType": "string",
          "name": "newFingerprint",
          "type": "string"
        }
      ],
      "name": "updateFingerprint",
      "outputs": [],
      "stateMutability": "nonpayable",
      "type": "function"
    },
    {
      "inputs": [
        {
          "internalType": "address",
          "name": "userAddress",
          "type": "address"
        }
      ],
      "name": "getUsersByAddress",
      "outputs": [
        {
          "components": [
            {
              "internalType": "string",
              "name": "email",
              "type": "string"
            },
            {
              "internalType": "bytes32",
              "name": "passwordHash",
              "type": "bytes32"
            },
            {
              "internalType": "bytes32",
              "name": "fingerprintHash",
              "type": "bytes32"
            },
            {
              "internalType": "uint256",
              "name": "lastUpdateTimestamp",
              "type": "uint256"
            }
          ],
          "internalType": "struct IdentityVerification.User[]",
          "name": "",
          "type": "tuple[]"
        }
      ],
      "stateMutability": "view",
      "type": "function",
      "constant": true
    },
    {
      "inputs": [
        {
          "internalType": "string",
          "name": "email",
          "type": "string"
        }
      ],
      "name": "getUserByEmail",
      "outputs": [
        {
          "internalType": "string",
          "name": "",
          "type": "string"
        },
        {
          "internalType": "bytes32",
          "name": "",
          "type": "bytes32"
        },
        {
          "internalType": "bytes32",
          "name": "",
          "type": "bytes32"
        }
      ],
      "stateMutability": "view",
      "type": "function",
      "constant": true
    }
  ],
  "bytecode": "0x608060405234801561001057600080fd5b50611d90806100206000396000f3fe608060405234801561001057600080fd5b50600436106100575760003560e01c806302cdcd891461005c57806318046ae11461008d578063347315fd146100bf57806366c45436146100db578063d637dcfa1461010b575b600080fd5b610076600480360381019061007191906110c9565b610127565b60405161008492919061120a565b60405180910390f35b6100a760048036038101906100a2919061123a565b61049b565b6040516100b69392919061129c565b60405180910390f35b6100d960048036038101906100d491906112da565b6107f3565b005b6100f560048036038101906100f091906113b0565b610b21565b6040516101029190611574565b60405180910390f35b610125600480360381019061012091906110c9565b610cf2565b005b6000606060008560405160200161013e91906115d2565b60405160208183030381529060405280519060200120905060006001600083815260200190815260200160002060009054906101000a900473ffffffffffffffffffffffffffffffffffffffff169050600073ffffffffffffffffffffffffffffffffffffffff168173ffffffffffffffffffffffffffffffffffffffff16036102055760006040518060400160405280601781526020017f5b4552524f525d2055736572206e6f7420666f756e6421000000000000000000815250935093505050610493565b60008060008373ffffffffffffffffffffffffffffffffffffffff1673ffffffffffffffffffffffffffffffffffffffff168152602001908152602001600020805480602002602001604051908101604052809291908181526020016000905b82821015610347578382906000526020600020906004020160405180608001604052908160008201805461029890611618565b80601f01602080910402602001604051908101604052809291908181526020018280546102c490611618565b80156103115780601f106102e657610100808354040283529160200191610311565b820191906000526020600020905b8154815290600101906020018083116102f457829003601f168201915b50505050508152602001600182015481526020016002820154815260200160038201548152505081526020019060010190610265565b50505050905060005b815181101561046f5781818151811061036c5761036b611649565b5b6020026020010151602001518860405160200161038991906115d2565b604051602081830303815290604052805190602001200361045c578181815181106103b7576103b6611649565b5b602002602001015160400151876040516020016103d491906115d2565b60405160208183030381529060405280519060200120036104345760016040518060400160405280601b81526020017f5b535543434553535d204c6f67696e207375636365737366756c2100000000008152509550955050505050610493565b6000604051806080016040528060528152602001611d09605291399550955050505050610493565b8080610467906116a7565b915050610350565b506000604051806080016040528060438152602001611cc660439139945094505050505b935093915050565b6060600080600060016000866040516020016104b791906115d2565b60405160208183030381529060405280519060200120815260200190815260200160002060009054906101000a900473ffffffffffffffffffffffffffffffffffffffff169050600073ffffffffffffffffffffffffffffffffffffffff168173ffffffffffffffffffffffffffffffffffffffff160361056d576040517f08c379a00000000000000000000000000000000000000000000000000000000081526004016105649061173b565b60405180910390fd5b60008060008373ffffffffffffffffffffffffffffffffffffffff1673ffffffffffffffffffffffffffffffffffffffff168152602001908152602001600020805480602002602001604051908101604052809291908181526020016000905b828210156106af578382906000526020600020906004020160405180608001604052908160008201805461060090611618565b80601f016020809104026020016040519081016040528092919081815260200182805461062c90611618565b80156106795780601f1061064e57610100808354040283529160200191610679565b820191906000526020600020905b81548152906001019060200180831161065c57829003601f168201915b505050505081526020016001820154815260200160028201548152602001600382015481525050815260200190600101906105cd565b50505050905060005b81518110156107b0578181815181106106d4576106d3611649565b5b6020026020010151600001516040516020016106f091906115d2565b604051602081830303815290604052805190602001208760405160200161071791906115d2565b604051602081830303815290604052805190602001200361079d5781818151811061074557610744611649565b5b60200260200101516000015182828151811061076457610763611649565b5b60200260200101516020015183838151811061078357610782611649565b5b6020026020010151604001519550955095505050506107ec565b80806107a8906116a7565b9150506106b8565b506040517f08c379a00000000000000000000000000000000000000000000000000000000081526004016107e39061173b565b60405180910390fd5b9193909250565b60008260405160200161080691906115d2565b60405160208183030381529060405280519060200120905060006001600083815260200190815260200160002060009054906101000a900473ffffffffffffffffffffffffffffffffffffffff1690503373ffffffffffffffffffffffffffffffffffffffff168173ffffffffffffffffffffffffffffffffffffffff16146108c4576040517f08c379a00000000000000000000000000000000000000000000000000000000081526004016108bb906117a7565b60405180910390fd5b60008060008373ffffffffffffffffffffffffffffffffffffffff1673ffffffffffffffffffffffffffffffffffffffff168152602001908152602001600020905060005b8180549050811015610ae15781818154811061092857610927611649565b5b9060005260206000209060040201600001604051602001610949919061185f565b604051602081830303815290604052805190602001208660405160200161097091906115d2565b6040516020818303038152906040528051906020012003610ace57620151808282815481106109a2576109a1611649565b5b906000526020600020906004020160030154426109bf9190611876565b116109ff576040517f08c379a00000000000000000000000000000000000000000000000000000000081526004016109f69061191c565b60405180910390fd5b84604051602001610a1091906115d2565b60405160208183030381529060405280519060200120828281548110610a3957610a38611649565b5b90600052602060002090600402016002018190555042828281548110610a6257610a61611649565b5b9060005260206000209060040201600301819055503373ffffffffffffffffffffffffffffffffffffffff167ffa8d96b120c1f6c5c916c6ee4c1a4e2a81ca386b471cd366d829d88c463e603787604051610abd919061193c565b60405180910390a250505050610b1d565b8080610ad9906116a7565b915050610909565b506040517f08c379a0000000000000000000000000000000000000000000000000000000008152600401610b149061173b565b60405180910390fd5b5050565b606060008060008473ffffffffffffffffffffffffffffffffffffffff1673ffffffffffffffffffffffffffffffffffffffff1681526020019081526020016000208054905011610ba7576040517f08c379a0000000000000000000000000000000000000000000000000000000008152600401610b9e906119d0565b60405180910390fd5b6000808373ffffffffffffffffffffffffffffffffffffffff1673ffffffffffffffffffffffffffffffffffffffff168152602001908152602001600020805480602002602001604051908101604052809291908181526020016000905b82821015610ce75783829060005260206000209060040201604051806080016040529081600082018054610c3890611618565b80601f0160208091040260200160405190810160405280929190818152602001828054610c6490611618565b8015610cb15780601f10610c8657610100808354040283529160200191610cb1565b820191906000526020600020905b815481529060010190602001808311610c9457829003601f168201915b50505050508152602001600182015481526020016002820154815260200160038201548152505081526020019060010190610c05565b505050509050919050565b600083604051602001610d0591906115d2565b604051602081830303815290604052805190602001209050600073ffffffffffffffffffffffffffffffffffffffff166001600083815260200190815260200160002060009054906101000a900473ffffffffffffffffffffffffffffffffffffffff1673ffffffffffffffffffffffffffffffffffffffff1614610dbf576040517f08c379a0000000000000000000000000000000000000000000000000000000008152600401610db690611a3c565b60405180910390fd5b6000803373ffffffffffffffffffffffffffffffffffffffff1673ffffffffffffffffffffffffffffffffffffffff168152602001908152602001600020604051806080016040528086815260200185604051602001610e1f91906115d2565b60405160208183030381529060405280519060200120815260200184604051602001610e4b91906115d2565b6040516020818303038152906040528051906020012081526020014281525090806001815401808255809150506001900390600052602060002090600402016000909190919091506000820151816000019081610ea89190611bf3565b506020820151816001015560408201518160020155606082015181600301555050336001600083815260200190815260200160002060006101000a81548173ffffffffffffffffffffffffffffffffffffffff021916908373ffffffffffffffffffffffffffffffffffffffff1602179055503373ffffffffffffffffffffffffffffffffffffffff167f48cac28ad4dc618e15f4c2dd5e97751182f166de97b25618318b2112aa951a2f85604051610f61919061193c565b60405180910390a250505050565b6000604051905090565b600080fd5b600080fd5b600080fd5b600080fd5b6000601f19601f8301169050919050565b7f4e487b7100000000000000000000000000000000000000000000000000000000600052604160045260246000fd5b610fd682610f8d565b810181811067ffffffffffffffff82111715610ff557610ff4610f9e565b5b80604052505050565b6000611008610f6f565b90506110148282610fcd565b919050565b600067ffffffffffffffff82111561103457611033610f9e565b5b61103d82610f8d565b9050602081019050919050565b82818337600083830152505050565b600061106c61106784611019565b610ffe565b90508281526020810184848401111561108857611087610f88565b5b61109384828561104a565b509392505050565b600082601f8301126110b0576110af610f83565b5b81356110c0848260208601611059565b91505092915050565b6000806000606084860312156110e2576110e1610f79565b5b600084013567ffffffffffffffff811115611100576110ff610f7e565b5b61110c8682870161109b565b935050602084013567ffffffffffffffff81111561112d5761112c610f7e565b5b6111398682870161109b565b925050604084013567ffffffffffffffff81111561115a57611159610f7e565b5b6111668682870161109b565b9150509250925092565b60008115159050919050565b61118581611170565b82525050565b600081519050919050565b600082825260208201905092915050565b60005b838110156111c55780820151818401526020810190506111aa565b60008484015250505050565b60006111dc8261118b565b6111e68185611196565b93506111f68185602086016111a7565b6111ff81610f8d565b840191505092915050565b600060408201905061121f600083018561117c565b818103602083015261123181846111d1565b90509392505050565b6000602082840312156112505761124f610f79565b5b600082013567ffffffffffffffff81111561126e5761126d610f7e565b5b61127a8482850161109b565b91505092915050565b6000819050919050565b61129681611283565b82525050565b600060608201905081810360008301526112b681866111d1565b90506112c5602083018561128d565b6112d2604083018461128d565b949350505050565b600080604083850312156112f1576112f0610f79565b5b600083013567ffffffffffffffff81111561130f5761130e610f7e565b5b61131b8582860161109b565b925050602083013567ffffffffffffffff81111561133c5761133b610f7e565b5b6113488582860161109b565b9150509250929050565b600073ffffffffffffffffffffffffffffffffffffffff82169050919050565b600061137d82611352565b9050919050565b61138d81611372565b811461139857600080fd5b50565b6000813590506113aa81611384565b92915050565b6000602082840312156113c6576113c5610f79565b5b60006113d48482850161139b565b91505092915050565b600081519050919050565b600082825260208201905092915050565b6000819050602082019050919050565b600082825260208201905092915050565b60006114258261118b565b61142f8185611409565b935061143f8185602086016111a7565b61144881610f8d565b840191505092915050565b61145c81611283565b82525050565b6000819050919050565b61147581611462565b82525050565b60006080830160008301518482036000860152611498828261141a565b91505060208301516114ad6020860182611453565b5060408301516114c06040860182611453565b5060608301516114d3606086018261146c565b508091505092915050565b60006114ea838361147b565b905092915050565b6000602082019050919050565b600061150a826113dd565b61151481856113e8565b935083602082028501611526856113f9565b8060005b85811015611562578484038952815161154385826114de565b945061154e836114f2565b925060208a0199505060018101905061152a565b50829750879550505050505092915050565b6000602082019050818103600083015261158e81846114ff565b905092915050565b600081905092915050565b60006115ac8261118b565b6115b68185611596565b93506115c68185602086016111a7565b80840191505092915050565b60006115de82846115a1565b915081905092915050565b7f4e487b7100000000000000000000000000000000000000000000000000000000600052602260045260246000fd5b6000600282049050600182168061163057607f821691505b602082108103611643576116426115e9565b5b50919050565b7f4e487b7100000000000000000000000000000000000000000000000000000000600052603260045260246000fd5b7f4e487b7100000000000000000000000000000000000000000000000000000000600052601160045260246000fd5b60006116b282611462565b91507fffffffffffffffffffffffffffffffffffffffffffffffffffffffffffffffff82036116e4576116e3611678565b5b600182019050919050565b7f5b4552524f525d2055736572206e6f7420666f756e6421000000000000000000600082015250565b6000611725601783611196565b9150611730826116ef565b602082019050919050565b6000602082019050818103600083015261175481611718565b9050919050565b7f5b4552524f525d20556e617574686f72697a6564207573657221000000000000600082015250565b6000611791601a83611196565b915061179c8261175b565b602082019050919050565b600060208201905081810360008301526117c081611784565b9050919050565b60008190508160005260206000209050919050565b600081546117e981611618565b6117f38186611596565b9450600182166000811461180e576001811461182357611856565b60ff1983168652811515820286019350611856565b61182c856117c7565b60005b8381101561184e5781548189015260018201915060208101905061182f565b838801955050505b50505092915050565b600061186b82846117dc565b915081905092915050565b600061188182611462565b915061188c83611462565b92508282039050818111156118a4576118a3611678565b5b92915050565b7f5b5741524e494e475d2055706461746520636f6f6c646f776e2061637469766560008201527f2100000000000000000000000000000000000000000000000000000000000000602082015250565b6000611906602183611196565b9150611911826118aa565b604082019050919050565b60006020820190508181036000830152611935816118f9565b9050919050565b6000602082019050818103600083015261195681846111d1565b905092915050565b7f5b4552524f525d204e6f20757365727320666f756e6420666f7220746869732060008201527f6164647265737321000000000000000000000000000000000000000000000000602082015250565b60006119ba602883611196565b91506119c58261195e565b604082019050919050565b600060208201905081810360008301526119e9816119ad565b9050919050565b7f5b4552524f525d20456d61696c20616c726561647920696e2075736521000000600082015250565b6000611a26601d83611196565b9150611a31826119f0565b602082019050919050565b60006020820190508181036000830152611a5581611a19565b9050919050565b60006020601f8301049050919050565b600082821b905092915050565b600060088302611aa97fffffffffffffffffffffffffffffffffffffffffffffffffffffffffffffffff82611a6c565b611ab38683611a6c565b95508019841693508086168417925050509392505050565b6000819050919050565b6000611af0611aeb611ae684611462565b611acb565b611462565b9050919050565b6000819050919050565b611b0a83611ad5565b611b1e611b1682611af7565b848454611a79565b825550505050565b600090565b611b33611b26565b611b3e818484611b01565b505050565b5b81811015611b6257611b57600082611b2b565b600181019050611b44565b5050565b601f821115611ba757611b78816117c7565b611b8184611a5c565b81016020851015611b90578190505b611ba4611b9c85611a5c565b830182611b43565b50505b505050565b600082821c905092915050565b6000611bca60001984600802611bac565b1980831691505092915050565b6000611be38383611bb9565b9150826002028217905092915050565b611bfc8261118b565b67ffffffffffffffff811115611c1557611c14610f9e565b5b611c1f8254611618565b611c2a828285611b66565b600060209050601f831160018114611c5d5760008415611c4b578287015190505b611c558582611bd7565b865550611cbd565b601f198416611c6b866117c7565b60005b82811015611c9357848901518255600182019150602085019450602081019050611c6e565b86831015611cb05784890151611cac601f891682611bb9565b8355505b6001600288020188555050505b50505050505056fe5b534543555249545920414c4552545d20496e76616c69642041757468656e7469636174696f6e20417474656d70743a2057726f6e672043726564656e7469616c73215b534543555249545920414c4552545d20496e76616c69642041757468656e7469636174696f6e20417474656d70743a2044657669636520496e74656772697479206973206e6f74206d61746368696e6721a264697066735822122071155f91fadb23d43fff229e8e928ae44fed05067dfd212dd3070c647024220a64736f6c63430008110033",
  "immutableReferences": {},
  "source": "// SPDX-License-Identifier: MIT\r\npragma solidity ^0.8.17;\r\n\r\ncontract IdentityVerification {\r\n    struct User {\r\n        string email;\r\n        bytes32 passwordHash;\r\n        bytes32 fingerprintHash;\r\n        uint256 lastUpdateTimestamp; // Cooldown timer for fingerprint updates\r\n    }\r\n\r\n    mapping(address => User[]) private users;\r\n    mapping(bytes32 => address) private emailToAddress;\r\n\r\n    event UserRegistered(address indexed user, string email);\r\n    event LoginAttempt(address indexed user, bool success, string message);\r\n    event FingerprintUpdated(address indexed user, string email);\r\n\r\n    /**\r\n     *  Register a New User\r\n     */\r\n    function registerUser(\r\n        string memory email,\r\n        string memory password,\r\n        string memory fingerprint\r\n    ) public {\r\n        bytes32 emailHash = keccak256(abi.encodePacked(email));\r\n\r\n        require(emailToAddress[emailHash] == address(0), \"[ERROR] Email already in use!\");\r\n\r\n        users[msg.sender].push(\r\n            User(\r\n                email,\r\n                keccak256(abi.encodePacked(password)),\r\n                keccak256(abi.encodePacked(fingerprint)),\r\n                block.timestamp\r\n            )\r\n        );\r\n        emailToAddress[emailHash] = msg.sender;\r\n\r\n        emit UserRegistered(msg.sender, email);\r\n    }\r\n\r\n    /**\r\n     *  Verify Login (Requires Password & Fingerprint)\r\n     */\r\n    function verifyLogin(\r\n        string memory email,\r\n        string memory password,\r\n        string memory fingerprint\r\n    ) public view returns (bool, string memory) {\r\n        bytes32 emailHash = keccak256(abi.encodePacked(email));\r\n        address userAddress = emailToAddress[emailHash];\r\n\r\n        if (userAddress == address(0)) {\r\n            return (false, \"[ERROR] User not found!\");\r\n        }\r\n\r\n        User[] memory userList = users[userAddress];\r\n\r\n        for (uint i = 0; i < userList.length; i++) {\r\n            if (keccak256(abi.encodePacked(password)) == userList[i].passwordHash) {\r\n                if (keccak256(abi.encodePacked(fingerprint)) == userList[i].fingerprintHash) {\r\n                    return (true, \"[SUCCESS] Login successful!\");\r\n                } else {\r\n                    return (false, \"[SECURITY ALERT] Invalid Authentication Attempt: Device Integrity is not matching!\");\r\n                }\r\n            }\r\n        }\r\n\r\n        return (false, \"[SECURITY ALERT] Invalid Authentication Attempt: Wrong Credentials!\");\r\n    }\r\n\r\n    /**\r\n     *  Update Fingerprint (Requires Cooldown Period)\r\n     */\r\n    function updateFingerprint(string memory email, string memory newFingerprint) public {\r\n        bytes32 emailHash = keccak256(abi.encodePacked(email));\r\n        address userAddress = emailToAddress[emailHash];\r\n\r\n        require(userAddress == msg.sender, \"[ERROR] Unauthorized user!\");\r\n\r\n        User[] storage userList = users[userAddress];\r\n\r\n        for (uint i = 0; i < userList.length; i++) {\r\n            if (keccak256(abi.encodePacked(email)) == keccak256(abi.encodePacked(userList[i].email))) {\r\n                require(block.timestamp - userList[i].lastUpdateTimestamp > 24 hours, \"[WARNING] Update cooldown active!\");\r\n\r\n                userList[i].fingerprintHash = keccak256(abi.encodePacked(newFingerprint));\r\n                userList[i].lastUpdateTimestamp = block.timestamp;\r\n\r\n                emit FingerprintUpdated(msg.sender, email);\r\n                return;\r\n            }\r\n        }\r\n\r\n        revert(\"[ERROR] User not found!\");\r\n    }\r\n\r\n    /**\r\n     *  Get Users by Address\r\n     */\r\n    function getUsersByAddress(address userAddress) public view returns (User[] memory) {\r\n        require(users[userAddress].length > 0, \"[ERROR] No users found for this address!\");\r\n        return users[userAddress];\r\n    }\r\n\r\n    /**\r\n     *  Get User by Email\r\n     */\r\n    function getUserByEmail(string memory email) public view returns (string memory, bytes32, bytes32) {\r\n        address userAddress = emailToAddress[keccak256(abi.encodePacked(email))];\r\n        require(userAddress != address(0), \"[ERROR] User not found!\");\r\n\r\n        User[] memory userList = users[userAddress];\r\n        for (uint i = 0; i < userList.length; i++) {\r\n            if (keccak256(abi.encodePacked(email)) == keccak256(abi.encodePacked(userList[i].email))) {\r\n                return (userList[i].email, userList[i].passwordHash, userList[i].fingerprintHash);\r\n            }\r\n        }\r\n\r\n        revert(\"[ERROR] User not found!\");\r\n    }\r\n}\r\n",
  "sourcePath": "D:\\KLU\\Projects\\Rustling\\Blockchain pow ZT Identity\\blockchain-zero-trust\\contracts\\IdentityVerification.sol",
  "compiler": {
    "name": "solc",
    "version": "0.8.17+commit.8df45f5f.Emscripten.clang"
  },
  "schemaVersion": "3.4.16",
  "updatedAt": "2025-03-20T14:16:29.882Z",
  "networkType": "ethereum",
  "devdoc": {
    "kind": "dev",
    "methods": {},
    "version": 1
  },
  "userdoc": {
    "kind": "user",
    "methods": {
      "getUserByEmail(string)": {
        "notice": " Get User by Email"
      },
      "getUsersByAddress(address)": {
        "notice": " Get Users by Address"
      },
      "registerUser(string,string,string)": {
        "notice": " Register a New User"
      },
      "updateFingerprint(string,string)": {
        "notice": " Update Fingerprint (Requires Cooldown Period)"
      },
      "verifyLogin(string,string,string)": {
        "notice": " Verify Login (Requires Password & Fingerprint)"
      }
    },
    "version": 1
  }
}