{
  "contractName": "IdentityVerification",
  "abi": [
    {
      "anonymous": false,
      "inputs": [
        {
          "indexed": true,
          "internalType": "address",
          "name": "user",
          "type": "address"
        },
        {
          "indexed": false,
          "internalType": "string",
          "name": "email",
          "type": "string"
        }
      ],
      "name": "FingerprintUpdated",
      "type": "event"
    },
    {
      "anonymous": false,
      "inputs": [
        {
          "indexed": true,
          "internalType": "address",
          "name": "user",
          "type": "address"
        },
        {
          "indexed": false,
          "internalType": "bool",
          "name": "success",
          "type": "bool"
        },
        {
          "indexed": false,
          "internalType": "string",
          "name": "message",
          "type": "string"
        }
      ],
      "name": "LoginAttempt",
      "type": "event"
    },
    {
      "anonymous": false,
      "inputs": [
        {
          "indexed": true,
          "internalType": "address",
          "name": "user",
          "type": "address"
        },
        {
          "indexed": false,
          "internalType": "string",
          "name": "email",
          "type": "string"
        }
      ],
      "name": "UserRegistered",
      "type": "event"
    },
    {
      "inputs": [
        {
          "internalType": "string",
          "name": "email",
          "type": "string"
        },
        {
          "internalType": "string",
          "name": "password",
          "type": "string"
        },
        {
          "internalType": "string",
          "name": "fingerprint",
          "type": "string"
        }
      ],
      "name": "registerUser",
      "outputs": [],
      "stateMutability": "nonpayable",
      "type": "function"
    },
    {
      "inputs": [
        {
          "internalType": "string",
          "name": "email",
          "type": "string"
        },
        {
          "internalType": "string",
          "name": "password",
          "type": "string"
        },
        {
          "internalType": "string",
          "name": "fingerprint",
          "type": "string"
        }
      ],
      "name": "verifyLogin",
      "outputs": [
        {
          "internalType": "bool",
          "name": "",
          "type": "bool"
        },
        {
          "internalType": "string",
          "name": "",
          "type": "string"
        }
      ],
      "stateMutability": "view",
      "type": "function",
      "constant": true
    },
    {
      "inputs": [
        {
          "internalType": "string",
          "name": "email",
          "type": "string"
        }
      ],
      "name": "getAddressByEmail",
      "outputs": [
        {
          "internalType": "address",
          "name": "",
          "type": "address"
        }
      ],
      "stateMutability": "view",
      "type": "function",
      "constant": true
    },
    {
      "inputs": [
        {
          "internalType": "string",
          "name": "email",
          "type": "string"
        },
        {
          "internalType": "string",
          "name": "newFingerprint",
          "type": "string"
        }
      ],
      "name": "updateFingerprint",
      "outputs": [],
      "stateMutability": "nonpayable",
      "type": "function"
    },
    {
      "inputs": [
        {
          "internalType": "address",
          "name": "userAddress",
          "type": "address"
        }
      ],
      "name": "getUsersByAddress",
      "outputs": [
        {
          "components": [
            {
              "internalType": "string",
              "name": "email",
              "type": "string"
            },
            {
              "internalType": "bytes32",
              "name": "passwordHash",
              "type": "bytes32"
            },
            {
              "internalType": "bytes32",
              "name": "fingerprintHash",
              "type": "bytes32"
            },
            {
              "internalType": "uint256",
              "name": "lastUpdateTimestamp",
              "type": "uint256"
            }
          ],
          "internalType": "struct IdentityVerification.User[]",
          "name": "",
          "type": "tuple[]"
        }
      ],
      "stateMutability": "view",
      "type": "function",
      "constant": true
    },
    {
      "inputs": [
        {
          "internalType": "string",
          "name": "email",
          "type": "string"
        }
      ],
      "name": "getUserByEmail",
      "outputs": [
        {
          "internalType": "string",
          "name": "",
          "type": "string"
        },
        {
          "internalType": "bytes32",
          "name": "",
          "type": "bytes32"
        },
        {
          "internalType": "bytes32",
          "name": "",
          "type": "bytes32"
        }
      ],
      "stateMutability": "view",
      "type": "function",
      "constant": true
    }
  ],
  "bytecode": "0x608060405234801561001057600080fd5b50611e5d806100206000396000f3fe608060405234801561001057600080fd5b50600436106100625760003560e01c806302cdcd891461006757806318046ae114610098578063347315fd146100ca57806366c45436146100e6578063c5caea0114610116578063d637dcfa14610146575b600080fd5b610081600480360381019061007c919061116c565b610162565b60405161008f9291906112ad565b60405180910390f35b6100b260048036038101906100ad91906112dd565b6104d6565b6040516100c19392919061133f565b60405180910390f35b6100e460048036038101906100df919061137d565b61082e565b005b61010060048036038101906100fb9190611453565b610b5c565b60405161010d9190611617565b60405180910390f35b610130600480360381019061012b91906112dd565b610d2d565b60405161013d9190611648565b60405180910390f35b610160600480360381019061015b919061116c565b610d95565b005b60006060600085604051602001610179919061169f565b60405160208183030381529060405280519060200120905060006001600083815260200190815260200160002060009054906101000a900473ffffffffffffffffffffffffffffffffffffffff169050600073ffffffffffffffffffffffffffffffffffffffff168173ffffffffffffffffffffffffffffffffffffffff16036102405760006040518060400160405280601781526020017f5b4552524f525d2055736572206e6f7420666f756e64210000000000000000008152509350935050506104ce565b60008060008373ffffffffffffffffffffffffffffffffffffffff1673ffffffffffffffffffffffffffffffffffffffff168152602001908152602001600020805480602002602001604051908101604052809291908181526020016000905b8282101561038257838290600052602060002090600402016040518060800160405290816000820180546102d3906116e5565b80601f01602080910402602001604051908101604052809291908181526020018280546102ff906116e5565b801561034c5780601f106103215761010080835404028352916020019161034c565b820191906000526020600020905b81548152906001019060200180831161032f57829003601f168201915b505050505081526020016001820154815260200160028201548152602001600382015481525050815260200190600101906102a0565b50505050905060005b81518110156104aa578181815181106103a7576103a6611716565b5b602002602001015160200151886040516020016103c4919061169f565b6040516020818303038152906040528051906020012003610497578181815181106103f2576103f1611716565b5b6020026020010151604001518760405160200161040f919061169f565b604051602081830303815290604052805190602001200361046f5760016040518060400160405280601b81526020017f5b535543434553535d204c6f67696e207375636365737366756c21000000000081525095509550505050506104ce565b6000604051806080016040528060528152602001611dd66052913995509550505050506104ce565b80806104a290611774565b91505061038b565b506000604051806080016040528060438152602001611d9360439139945094505050505b935093915050565b6060600080600060016000866040516020016104f2919061169f565b60405160208183030381529060405280519060200120815260200190815260200160002060009054906101000a900473ffffffffffffffffffffffffffffffffffffffff169050600073ffffffffffffffffffffffffffffffffffffffff168173ffffffffffffffffffffffffffffffffffffffff16036105a8576040517f08c379a000000000000000000000000000000000000000000000000000000000815260040161059f90611808565b60405180910390fd5b60008060008373ffffffffffffffffffffffffffffffffffffffff1673ffffffffffffffffffffffffffffffffffffffff168152602001908152602001600020805480602002602001604051908101604052809291908181526020016000905b828210156106ea578382906000526020600020906004020160405180608001604052908160008201805461063b906116e5565b80601f0160208091040260200160405190810160405280929190818152602001828054610667906116e5565b80156106b45780601f10610689576101008083540402835291602001916106b4565b820191906000526020600020905b81548152906001019060200180831161069757829003601f168201915b50505050508152602001600182015481526020016002820154815260200160038201548152505081526020019060010190610608565b50505050905060005b81518110156107eb5781818151811061070f5761070e611716565b5b60200260200101516000015160405160200161072b919061169f565b6040516020818303038152906040528051906020012087604051602001610752919061169f565b60405160208183030381529060405280519060200120036107d8578181815181106107805761077f611716565b5b60200260200101516000015182828151811061079f5761079e611716565b5b6020026020010151602001518383815181106107be576107bd611716565b5b602002602001015160400151955095509550505050610827565b80806107e390611774565b9150506106f3565b506040517f08c379a000000000000000000000000000000000000000000000000000000000815260040161081e90611808565b60405180910390fd5b9193909250565b600082604051602001610841919061169f565b60405160208183030381529060405280519060200120905060006001600083815260200190815260200160002060009054906101000a900473ffffffffffffffffffffffffffffffffffffffff1690503373ffffffffffffffffffffffffffffffffffffffff168173ffffffffffffffffffffffffffffffffffffffff16146108ff576040517f08c379a00000000000000000000000000000000000000000000000000000000081526004016108f690611874565b60405180910390fd5b60008060008373ffffffffffffffffffffffffffffffffffffffff1673ffffffffffffffffffffffffffffffffffffffff168152602001908152602001600020905060005b8180549050811015610b1c5781818154811061096357610962611716565b5b9060005260206000209060040201600001604051602001610984919061192c565b60405160208183030381529060405280519060200120866040516020016109ab919061169f565b6040516020818303038152906040528051906020012003610b0957620151808282815481106109dd576109dc611716565b5b906000526020600020906004020160030154426109fa9190611943565b11610a3a576040517f08c379a0000000000000000000000000000000000000000000000000000000008152600401610a31906119e9565b60405180910390fd5b84604051602001610a4b919061169f565b60405160208183030381529060405280519060200120828281548110610a7457610a73611716565b5b90600052602060002090600402016002018190555042828281548110610a9d57610a9c611716565b5b9060005260206000209060040201600301819055503373ffffffffffffffffffffffffffffffffffffffff167ffa8d96b120c1f6c5c916c6ee4c1a4e2a81ca386b471cd366d829d88c463e603787604051610af89190611a09565b60405180910390a250505050610b58565b8080610b1490611774565b915050610944565b506040517f08c379a0000000000000000000000000000000000000000000000000000000008152600401610b4f90611808565b60405180910390fd5b5050565b606060008060008473ffffffffffffffffffffffffffffffffffffffff1673ffffffffffffffffffffffffffffffffffffffff1681526020019081526020016000208054905011610be2576040517f08c379a0000000000000000000000000000000000000000000000000000000008152600401610bd990611a9d565b60405180910390fd5b6000808373ffffffffffffffffffffffffffffffffffffffff1673ffffffffffffffffffffffffffffffffffffffff168152602001908152602001600020805480602002602001604051908101604052809291908181526020016000905b82821015610d225783829060005260206000209060040201604051806080016040529081600082018054610c73906116e5565b80601f0160208091040260200160405190810160405280929190818152602001828054610c9f906116e5565b8015610cec5780601f10610cc157610100808354040283529160200191610cec565b820191906000526020600020905b815481529060010190602001808311610ccf57829003601f168201915b50505050508152602001600182015481526020016002820154815260200160038201548152505081526020019060010190610c40565b505050509050919050565b60008082604051602001610d41919061169f565b6040516020818303038152906040528051906020012090506001600082815260200190815260200160002060009054906101000a900473ffffffffffffffffffffffffffffffffffffffff16915050919050565b600083604051602001610da8919061169f565b604051602081830303815290604052805190602001209050600073ffffffffffffffffffffffffffffffffffffffff166001600083815260200190815260200160002060009054906101000a900473ffffffffffffffffffffffffffffffffffffffff1673ffffffffffffffffffffffffffffffffffffffff1614610e62576040517f08c379a0000000000000000000000000000000000000000000000000000000008152600401610e5990611b09565b60405180910390fd5b6000803373ffffffffffffffffffffffffffffffffffffffff1673ffffffffffffffffffffffffffffffffffffffff168152602001908152602001600020604051806080016040528086815260200185604051602001610ec2919061169f565b60405160208183030381529060405280519060200120815260200184604051602001610eee919061169f565b6040516020818303038152906040528051906020012081526020014281525090806001815401808255809150506001900390600052602060002090600402016000909190919091506000820151816000019081610f4b9190611cc0565b506020820151816001015560408201518160020155606082015181600301555050336001600083815260200190815260200160002060006101000a81548173ffffffffffffffffffffffffffffffffffffffff021916908373ffffffffffffffffffffffffffffffffffffffff1602179055503373ffffffffffffffffffffffffffffffffffffffff167f48cac28ad4dc618e15f4c2dd5e97751182f166de97b25618318b2112aa951a2f856040516110049190611a09565b60405180910390a250505050565b6000604051905090565b600080fd5b600080fd5b600080fd5b600080fd5b6000601f19601f8301169050919050565b7f4e487b7100000000000000000000000000000000000000000000000000000000600052604160045260246000fd5b61107982611030565b810181811067ffffffffffffffff8211171561109857611097611041565b5b80604052505050565b60006110ab611012565b90506110b78282611070565b919050565b600067ffffffffffffffff8211156110d7576110d6611041565b5b6110e082611030565b9050602081019050919050565b82818337600083830152505050565b600061110f61110a846110bc565b6110a1565b90508281526020810184848401111561112b5761112a61102b565b5b6111368482856110ed565b509392505050565b600082601f83011261115357611152611026565b5b81356111638482602086016110fc565b91505092915050565b6000806000606084860312156111855761118461101c565b5b600084013567ffffffffffffffff8111156111a3576111a2611021565b5b6111af8682870161113e565b935050602084013567ffffffffffffffff8111156111d0576111cf611021565b5b6111dc8682870161113e565b925050604084013567ffffffffffffffff8111156111fd576111fc611021565b5b6112098682870161113e565b9150509250925092565b60008115159050919050565b61122881611213565b82525050565b600081519050919050565b600082825260208201905092915050565b60005b8381101561126857808201518184015260208101905061124d565b60008484015250505050565b600061127f8261122e565b6112898185611239565b935061129981856020860161124a565b6112a281611030565b840191505092915050565b60006040820190506112c2600083018561121f565b81810360208301526112d48184611274565b90509392505050565b6000602082840312156112f3576112f261101c565b5b600082013567ffffffffffffffff81111561131157611310611021565b5b61131d8482850161113e565b91505092915050565b6000819050919050565b61133981611326565b82525050565b600060608201905081810360008301526113598186611274565b90506113686020830185611330565b6113756040830184611330565b949350505050565b600080604083850312156113945761139361101c565b5b600083013567ffffffffffffffff8111156113b2576113b1611021565b5b6113be8582860161113e565b925050602083013567ffffffffffffffff8111156113df576113de611021565b5b6113eb8582860161113e565b9150509250929050565b600073ffffffffffffffffffffffffffffffffffffffff82169050919050565b6000611420826113f5565b9050919050565b61143081611415565b811461143b57600080fd5b50565b60008135905061144d81611427565b92915050565b6000602082840312156114695761146861101c565b5b60006114778482850161143e565b91505092915050565b600081519050919050565b600082825260208201905092915050565b6000819050602082019050919050565b600082825260208201905092915050565b60006114c88261122e565b6114d281856114ac565b93506114e281856020860161124a565b6114eb81611030565b840191505092915050565b6114ff81611326565b82525050565b6000819050919050565b61151881611505565b82525050565b6000608083016000830151848203600086015261153b82826114bd565b915050602083015161155060208601826114f6565b50604083015161156360408601826114f6565b506060830151611576606086018261150f565b508091505092915050565b600061158d838361151e565b905092915050565b6000602082019050919050565b60006115ad82611480565b6115b7818561148b565b9350836020820285016115c98561149c565b8060005b8581101561160557848403895281516115e68582611581565b94506115f183611595565b925060208a019950506001810190506115cd565b50829750879550505050505092915050565b6000602082019050818103600083015261163181846115a2565b905092915050565b61164281611415565b82525050565b600060208201905061165d6000830184611639565b92915050565b600081905092915050565b60006116798261122e565b6116838185611663565b935061169381856020860161124a565b80840191505092915050565b60006116ab828461166e565b915081905092915050565b7f4e487b7100000000000000000000000000000000000000000000000000000000600052602260045260246000fd5b600060028204905060018216806116fd57607f821691505b6020821081036117105761170f6116b6565b5b50919050565b7f4e487b7100000000000000000000000000000000000000000000000000000000600052603260045260246000fd5b7f4e487b7100000000000000000000000000000000000000000000000000000000600052601160045260246000fd5b600061177f82611505565b91507fffffffffffffffffffffffffffffffffffffffffffffffffffffffffffffffff82036117b1576117b0611745565b5b600182019050919050565b7f5b4552524f525d2055736572206e6f7420666f756e6421000000000000000000600082015250565b60006117f2601783611239565b91506117fd826117bc565b602082019050919050565b60006020820190508181036000830152611821816117e5565b9050919050565b7f5b4552524f525d20556e617574686f72697a6564207573657221000000000000600082015250565b600061185e601a83611239565b915061186982611828565b602082019050919050565b6000602082019050818103600083015261188d81611851565b9050919050565b60008190508160005260206000209050919050565b600081546118b6816116e5565b6118c08186611663565b945060018216600081146118db57600181146118f057611923565b60ff1983168652811515820286019350611923565b6118f985611894565b60005b8381101561191b578154818901526001820191506020810190506118fc565b838801955050505b50505092915050565b600061193882846118a9565b915081905092915050565b600061194e82611505565b915061195983611505565b925082820390508181111561197157611970611745565b5b92915050565b7f5b5741524e494e475d2055706461746520636f6f6c646f776e2061637469766560008201527f2100000000000000000000000000000000000000000000000000000000000000602082015250565b60006119d3602183611239565b91506119de82611977565b604082019050919050565b60006020820190508181036000830152611a02816119c6565b9050919050565b60006020820190508181036000830152611a238184611274565b905092915050565b7f5b4552524f525d204e6f20757365727320666f756e6420666f7220746869732060008201527f6164647265737321000000000000000000000000000000000000000000000000602082015250565b6000611a87602883611239565b9150611a9282611a2b565b604082019050919050565b60006020820190508181036000830152611ab681611a7a565b9050919050565b7f5b4552524f525d20456d61696c20616c726561647920696e2075736521000000600082015250565b6000611af3601d83611239565b9150611afe82611abd565b602082019050919050565b60006020820190508181036000830152611b2281611ae6565b9050919050565b60006020601f8301049050919050565b600082821b905092915050565b600060088302611b767fffffffffffffffffffffffffffffffffffffffffffffffffffffffffffffffff82611b39565b611b808683611b39565b95508019841693508086168417925050509392505050565b6000819050919050565b6000611bbd611bb8611bb384611505565b611b98565b611505565b9050919050565b6000819050919050565b611bd783611ba2565b611beb611be382611bc4565b848454611b46565b825550505050565b600090565b611c00611bf3565b611c0b818484611bce565b505050565b5b81811015611c2f57611c24600082611bf8565b600181019050611c11565b5050565b601f821115611c7457611c4581611894565b611c4e84611b29565b81016020851015611c5d578190505b611c71611c6985611b29565b830182611c10565b50505b505050565b600082821c905092915050565b6000611c9760001984600802611c79565b1980831691505092915050565b6000611cb08383611c86565b9150826002028217905092915050565b611cc98261122e565b67ffffffffffffffff811115611ce257611ce1611041565b5b611cec82546116e5565b611cf7828285611c33565b600060209050601f831160018114611d2a5760008415611d18578287015190505b611d228582611ca4565b865550611d8a565b601f198416611d3886611894565b60005b82811015611d6057848901518255600182019150602085019450602081019050611d3b565b86831015611d7d5784890151611d79601f891682611c86565b8355505b6001600288020188555050505b50505050505056fe5b534543555249545920414c4552545d20496e76616c69642041757468656e7469636174696f6e20417474656d70743a2057726f6e672043726564656e7469616c73215b534543555249545920414c4552545d20496e76616c69642041757468656e7469636174696f6e20417474656d70743a2044657669636520496e74656772697479206973206e6f74206d61746368696e6721a2646970667358221220aba0f25806eed24af62b256681a420818deea774e5651c318d093b677c7e944064736f6c63430008110033",
  "immutableReferences": {},
  "source": "// SPDX-License-Identifier: MIT\r\npragma solidity ^0.8.17;\r\n\r\ncontract IdentityVerification {\r\n    struct User {\r\n        string email;\r\n        bytes32 passwordHash;\r\n        bytes32 fingerprintHash;\r\n        uint256 lastUpdateTimestamp; // Cooldown timer for fingerprint updates\r\n    }\r\n\r\n    mapping(address => User[]) private users;\r\n    mapping(bytes32 => address) private emailToAddress;\r\n\r\n    event UserRegistered(address indexed user, string email);\r\n    event LoginAttempt(address indexed user, bool success, string message);\r\n    event FingerprintUpdated(address indexed user, string email);\r\n\r\n    /**\r\n     *  Register a New User\r\n     */\r\n    function registerUser(\r\n        string memory email,\r\n        string memory password,\r\n        string memory fingerprint\r\n    ) public {\r\n        bytes32 emailHash = keccak256(abi.encodePacked(email));\r\n\r\n        require(emailToAddress[emailHash] == address(0), \"[ERROR] Email already in use!\");\r\n\r\n        users[msg.sender].push(\r\n            User(\r\n                email,\r\n                keccak256(abi.encodePacked(password)),\r\n                keccak256(abi.encodePacked(fingerprint)),\r\n                block.timestamp\r\n            )\r\n        );\r\n        emailToAddress[emailHash] = msg.sender;\r\n\r\n        emit UserRegistered(msg.sender, email);\r\n    }\r\n\r\n    /**\r\n     *  Verify Login (Requires Password & Fingerprint)\r\n     */\r\n    function verifyLogin(\r\n        string memory email,\r\n        string memory password,\r\n        string memory fingerprint\r\n    ) public view returns (bool, string memory) {\r\n        bytes32 emailHash = keccak256(abi.encodePacked(email));\r\n        address userAddress = emailToAddress[emailHash];\r\n\r\n        if (userAddress == address(0)) {\r\n            return (false, \"[ERROR] User not found!\");\r\n        }\r\n\r\n        User[] memory userList = users[userAddress];\r\n\r\n        for (uint i = 0; i < userList.length; i++) {\r\n            if (keccak256(abi.encodePacked(password)) == userList[i].passwordHash) {\r\n                if (keccak256(abi.encodePacked(fingerprint)) == userList[i].fingerprintHash) {\r\n                    return (true, \"[SUCCESS] Login successful!\");\r\n                } else {\r\n                    return (false, \"[SECURITY ALERT] Invalid Authentication Attempt: Device Integrity is not matching!\");\r\n                }\r\n            }\r\n        }\r\n\r\n        return (false, \"[SECURITY ALERT] Invalid Authentication Attempt: Wrong Credentials!\");\r\n    }\r\n\r\n    /**\r\n    *  Get Blockchain Address by Email\r\n    */\r\n    function getAddressByEmail(string memory email) public view returns (address) {\r\n        bytes32 emailHash = keccak256(abi.encodePacked(email));\r\n        return emailToAddress[emailHash];\r\n    }\r\n\r\n\r\n    /**\r\n     *  Update Fingerprint (Requires Cooldown Period)\r\n     */\r\n    function updateFingerprint(string memory email, string memory newFingerprint) public {\r\n        bytes32 emailHash = keccak256(abi.encodePacked(email));\r\n        address userAddress = emailToAddress[emailHash];\r\n\r\n        require(userAddress == msg.sender, \"[ERROR] Unauthorized user!\");\r\n\r\n        User[] storage userList = users[userAddress];\r\n\r\n        for (uint i = 0; i < userList.length; i++) {\r\n            if (keccak256(abi.encodePacked(email)) == keccak256(abi.encodePacked(userList[i].email))) {\r\n                require(block.timestamp - userList[i].lastUpdateTimestamp > 24 hours, \"[WARNING] Update cooldown active!\");\r\n\r\n                userList[i].fingerprintHash = keccak256(abi.encodePacked(newFingerprint));\r\n                userList[i].lastUpdateTimestamp = block.timestamp;\r\n\r\n                emit FingerprintUpdated(msg.sender, email);\r\n                return;\r\n            }\r\n        }\r\n\r\n        revert(\"[ERROR] User not found!\");\r\n    }\r\n\r\n    /**\r\n     *  Get Users by Address\r\n     */\r\n    function getUsersByAddress(address userAddress) public view returns (User[] memory) {\r\n        require(users[userAddress].length > 0, \"[ERROR] No users found for this address!\");\r\n        return users[userAddress];\r\n    }\r\n\r\n    /**\r\n     *  Get User by Email\r\n     */\r\n    function getUserByEmail(string memory email) public view returns (string memory, bytes32, bytes32) {\r\n        address userAddress = emailToAddress[keccak256(abi.encodePacked(email))];\r\n        require(userAddress != address(0), \"[ERROR] User not found!\");\r\n\r\n        User[] memory userList = users[userAddress];\r\n        for (uint i = 0; i < userList.length; i++) {\r\n            if (keccak256(abi.encodePacked(email)) == keccak256(abi.encodePacked(userList[i].email))) {\r\n                return (userList[i].email, userList[i].passwordHash, userList[i].fingerprintHash);\r\n            }\r\n        }\r\n\r\n        revert(\"[ERROR] User not found!\");\r\n    }\r\n}\r\n",
  "sourcePath": "D:\\KLU\\Projects\\Rustling\\Blockchain pow ZT Identity\\blockchain-zero-trust\\contracts\\IdentityVerification.sol",
  "compiler": {
    "name": "solc",
    "version": "0.8.17+commit.8df45f5f.Emscripten.clang"
  },
  "schemaVersion": "3.4.16",
  "updatedAt": "2025-03-20T16:57:26.931Z",
  "networkType": "ethereum",
  "devdoc": {
    "kind": "dev",
    "methods": {},
    "version": 1
  },
  "userdoc": {
    "kind": "user",
    "methods": {
      "getAddressByEmail(string)": {
        "notice": " Get Blockchain Address by Email"
      },
      "getUserByEmail(string)": {
        "notice": " Get User by Email"
      },
      "getUsersByAddress(address)": {
        "notice": " Get Users by Address"
      },
      "registerUser(string,string,string)": {
        "notice": " Register a New User"
      },
      "updateFingerprint(string,string)": {
        "notice": " Update Fingerprint (Requires Cooldown Period)"
      },
      "verifyLogin(string,string,string)": {
        "notice": " Verify Login (Requires Password & Fingerprint)"
      }
    },
    "version": 1
  }
}