{
  "contractName": "IdentityVerification",
  "abi": [
    {
      "anonymous": false,
      "inputs": [
        {
          "indexed": true,
          "internalType": "address",
          "name": "user",
          "type": "address"
        },
        {
          "indexed": false,
          "internalType": "string",
          "name": "email",
          "type": "string"
        }
      ],
      "name": "FingerprintUpdated",
      "type": "event"
    },
    {
      "anonymous": false,
      "inputs": [
        {
          "indexed": true,
          "internalType": "address",
          "name": "user",
          "type": "address"
        },
        {
          "indexed": false,
          "internalType": "bool",
          "name": "success",
          "type": "bool"
        }
      ],
      "name": "LoginAttempt",
      "type": "event"
    },
    {
      "anonymous": false,
      "inputs": [
        {
          "indexed": true,
          "internalType": "address",
          "name": "user",
          "type": "address"
        },
        {
          "indexed": false,
          "internalType": "string",
          "name": "email",
          "type": "string"
        }
      ],
      "name": "UserRegistered",
      "type": "event"
    },
    {
      "inputs": [
        {
          "internalType": "string",
          "name": "email",
          "type": "string"
        },
        {
          "internalType": "string",
          "name": "password",
          "type": "string"
        },
        {
          "internalType": "string",
          "name": "fingerprint",
          "type": "string"
        }
      ],
      "name": "registerUser",
      "outputs": [],
      "stateMutability": "nonpayable",
      "type": "function"
    },
    {
      "inputs": [
        {
          "internalType": "string",
          "name": "email",
          "type": "string"
        },
        {
          "internalType": "string",
          "name": "password",
          "type": "string"
        },
        {
          "internalType": "string",
          "name": "fingerprint",
          "type": "string"
        }
      ],
      "name": "verifyLogin",
      "outputs": [
        {
          "internalType": "bool",
          "name": "",
          "type": "bool"
        },
        {
          "internalType": "string",
          "name": "",
          "type": "string"
        }
      ],
      "stateMutability": "view",
      "type": "function",
      "constant": true
    },
    {
      "inputs": [
        {
          "internalType": "address",
          "name": "userAddress",
          "type": "address"
        }
      ],
      "name": "getUsersByAddress",
      "outputs": [
        {
          "components": [
            {
              "internalType": "string",
              "name": "email",
              "type": "string"
            },
            {
              "internalType": "bytes32",
              "name": "passwordHash",
              "type": "bytes32"
            },
            {
              "internalType": "bytes32",
              "name": "fingerprintHash",
              "type": "bytes32"
            }
          ],
          "internalType": "struct IdentityVerification.User[]",
          "name": "",
          "type": "tuple[]"
        }
      ],
      "stateMutability": "view",
      "type": "function",
      "constant": true
    },
    {
      "inputs": [
        {
          "internalType": "string",
          "name": "email",
          "type": "string"
        }
      ],
      "name": "getUserByEmail",
      "outputs": [
        {
          "internalType": "string",
          "name": "",
          "type": "string"
        },
        {
          "internalType": "bytes32",
          "name": "",
          "type": "bytes32"
        },
        {
          "internalType": "bytes32",
          "name": "",
          "type": "bytes32"
        }
      ],
      "stateMutability": "view",
      "type": "function",
      "constant": true
    }
  ],
  "bytecode": "0x608060405234801561001057600080fd5b506116e6806100206000396000f3fe608060405234801561001057600080fd5b506004361061004c5760003560e01c806302cdcd891461005157806318046ae11461008257806366c45436146100b4578063d637dcfa146100e4575b600080fd5b61006b60048036038101906100669190610d40565b610100565b604051610079929190610e81565b60405180910390f35b61009c60048036038101906100979190610eb1565b610464565b6040516100ab93929190610f13565b60405180910390f35b6100ce60048036038101906100c99190610faf565b6107b2565b6040516100db9190611147565b60405180910390f35b6100fe60048036038101906100f99190610d40565b610979565b005b6000606060008560405160200161011791906111a5565b60405160208183030381529060405280519060200120905060006001600083815260200190815260200160002060009054906101000a900473ffffffffffffffffffffffffffffffffffffffff169050600073ffffffffffffffffffffffffffffffffffffffff168173ffffffffffffffffffffffffffffffffffffffff16036101de5760006040518060400160405280600f81526020017f55736572206e6f7420666f756e6421000000000000000000000000000000000081525093509350505061045c565b60008060008373ffffffffffffffffffffffffffffffffffffffff1673ffffffffffffffffffffffffffffffffffffffff168152602001908152602001600020805480602002602001604051908101604052809291908181526020016000905b828210156103165783829060005260206000209060030201604051806060016040529081600082018054610271906111eb565b80601f016020809104026020016040519081016040528092919081815260200182805461029d906111eb565b80156102ea5780601f106102bf576101008083540402835291602001916102ea565b820191906000526020600020905b8154815290600101906020018083116102cd57829003601f168201915b50505050508152602001600182015481526020016002820154815250508152602001906001019061023e565b50505050905060005b815181101561041b5781818151811061033b5761033a61121c565b5b6020026020010151602001518860405160200161035891906111a5565b604051602081830303815290604052805190602001201480156103be57508181815181106103895761038861121c565b5b602002602001015160400151876040516020016103a691906111a5565b60405160208183030381529060405280519060200120145b156104085760016040518060400160405280601181526020017f4c6f67696e207375636365737366756c21000000000000000000000000000000815250955095505050505061045c565b808061041390611284565b91505061031f565b5060006040518060400160405280601481526020017f496e76616c69642063726564656e7469616c7321000000000000000000000000815250945094505050505b935093915050565b60606000806000600160008660405160200161048091906111a5565b60405160208183030381529060405280519060200120815260200190815260200160002060009054906101000a900473ffffffffffffffffffffffffffffffffffffffff169050600073ffffffffffffffffffffffffffffffffffffffff168173ffffffffffffffffffffffffffffffffffffffff1603610536576040517f08c379a000000000000000000000000000000000000000000000000000000000815260040161052d90611318565b60405180910390fd5b60008060008373ffffffffffffffffffffffffffffffffffffffff1673ffffffffffffffffffffffffffffffffffffffff168152602001908152602001600020805480602002602001604051908101604052809291908181526020016000905b8282101561066e57838290600052602060002090600302016040518060600160405290816000820180546105c9906111eb565b80601f01602080910402602001604051908101604052809291908181526020018280546105f5906111eb565b80156106425780601f1061061757610100808354040283529160200191610642565b820191906000526020600020905b81548152906001019060200180831161062557829003601f168201915b505050505081526020016001820154815260200160028201548152505081526020019060010190610596565b50505050905060005b815181101561076f578181815181106106935761069261121c565b5b6020026020010151600001516040516020016106af91906111a5565b60405160208183030381529060405280519060200120876040516020016106d691906111a5565b604051602081830303815290604052805190602001200361075c578181815181106107045761070361121c565b5b6020026020010151600001518282815181106107235761072261121c565b5b6020026020010151602001518383815181106107425761074161121c565b5b6020026020010151604001519550955095505050506107ab565b808061076790611284565b915050610677565b506040517f08c379a00000000000000000000000000000000000000000000000000000000081526004016107a290611318565b60405180910390fd5b9193909250565b606060008060008473ffffffffffffffffffffffffffffffffffffffff1673ffffffffffffffffffffffffffffffffffffffff1681526020019081526020016000208054905011610838576040517f08c379a000000000000000000000000000000000000000000000000000000000815260040161082f90611384565b60405180910390fd5b6000808373ffffffffffffffffffffffffffffffffffffffff1673ffffffffffffffffffffffffffffffffffffffff168152602001908152602001600020805480602002602001604051908101604052809291908181526020016000905b8282101561096e57838290600052602060002090600302016040518060600160405290816000820180546108c9906111eb565b80601f01602080910402602001604051908101604052809291908181526020018280546108f5906111eb565b80156109425780601f1061091757610100808354040283529160200191610942565b820191906000526020600020905b81548152906001019060200180831161092557829003601f168201915b505050505081526020016001820154815260200160028201548152505081526020019060010190610896565b505050509050919050565b60008360405160200161098c91906111a5565b604051602081830303815290604052805190602001209050600073ffffffffffffffffffffffffffffffffffffffff166001600083815260200190815260200160002060009054906101000a900473ffffffffffffffffffffffffffffffffffffffff1673ffffffffffffffffffffffffffffffffffffffff1614610a46576040517f08c379a0000000000000000000000000000000000000000000000000000000008152600401610a3d906113f0565b60405180910390fd5b6000803373ffffffffffffffffffffffffffffffffffffffff1673ffffffffffffffffffffffffffffffffffffffff168152602001908152602001600020604051806060016040528086815260200185604051602001610aa691906111a5565b60405160208183030381529060405280519060200120815260200184604051602001610ad291906111a5565b6040516020818303038152906040528051906020012081525090806001815401808255809150506001900390600052602060002090600302016000909190919091506000820151816000019081610b2991906115bc565b5060208201518160010155604082015181600201555050336001600083815260200190815260200160002060006101000a81548173ffffffffffffffffffffffffffffffffffffffff021916908373ffffffffffffffffffffffffffffffffffffffff1602179055503373ffffffffffffffffffffffffffffffffffffffff167f48cac28ad4dc618e15f4c2dd5e97751182f166de97b25618318b2112aa951a2f85604051610bd8919061168e565b60405180910390a250505050565b6000604051905090565b600080fd5b600080fd5b600080fd5b600080fd5b6000601f19601f8301169050919050565b7f4e487b7100000000000000000000000000000000000000000000000000000000600052604160045260246000fd5b610c4d82610c04565b810181811067ffffffffffffffff82111715610c6c57610c6b610c15565b5b80604052505050565b6000610c7f610be6565b9050610c8b8282610c44565b919050565b600067ffffffffffffffff821115610cab57610caa610c15565b5b610cb482610c04565b9050602081019050919050565b82818337600083830152505050565b6000610ce3610cde84610c90565b610c75565b905082815260208101848484011115610cff57610cfe610bff565b5b610d0a848285610cc1565b509392505050565b600082601f830112610d2757610d26610bfa565b5b8135610d37848260208601610cd0565b91505092915050565b600080600060608486031215610d5957610d58610bf0565b5b600084013567ffffffffffffffff811115610d7757610d76610bf5565b5b610d8386828701610d12565b935050602084013567ffffffffffffffff811115610da457610da3610bf5565b5b610db086828701610d12565b925050604084013567ffffffffffffffff811115610dd157610dd0610bf5565b5b610ddd86828701610d12565b9150509250925092565b60008115159050919050565b610dfc81610de7565b82525050565b600081519050919050565b600082825260208201905092915050565b60005b83811015610e3c578082015181840152602081019050610e21565b60008484015250505050565b6000610e5382610e02565b610e5d8185610e0d565b9350610e6d818560208601610e1e565b610e7681610c04565b840191505092915050565b6000604082019050610e966000830185610df3565b8181036020830152610ea88184610e48565b90509392505050565b600060208284031215610ec757610ec6610bf0565b5b600082013567ffffffffffffffff811115610ee557610ee4610bf5565b5b610ef184828501610d12565b91505092915050565b6000819050919050565b610f0d81610efa565b82525050565b60006060820190508181036000830152610f2d8186610e48565b9050610f3c6020830185610f04565b610f496040830184610f04565b949350505050565b600073ffffffffffffffffffffffffffffffffffffffff82169050919050565b6000610f7c82610f51565b9050919050565b610f8c81610f71565b8114610f9757600080fd5b50565b600081359050610fa981610f83565b92915050565b600060208284031215610fc557610fc4610bf0565b5b6000610fd384828501610f9a565b91505092915050565b600081519050919050565b600082825260208201905092915050565b6000819050602082019050919050565b600082825260208201905092915050565b600061102482610e02565b61102e8185611008565b935061103e818560208601610e1e565b61104781610c04565b840191505092915050565b61105b81610efa565b82525050565b6000606083016000830151848203600086015261107e8282611019565b91505060208301516110936020860182611052565b5060408301516110a66040860182611052565b508091505092915050565b60006110bd8383611061565b905092915050565b6000602082019050919050565b60006110dd82610fdc565b6110e78185610fe7565b9350836020820285016110f985610ff8565b8060005b85811015611135578484038952815161111685826110b1565b9450611121836110c5565b925060208a019950506001810190506110fd565b50829750879550505050505092915050565b6000602082019050818103600083015261116181846110d2565b905092915050565b600081905092915050565b600061117f82610e02565b6111898185611169565b9350611199818560208601610e1e565b80840191505092915050565b60006111b18284611174565b915081905092915050565b7f4e487b7100000000000000000000000000000000000000000000000000000000600052602260045260246000fd5b6000600282049050600182168061120357607f821691505b602082108103611216576112156111bc565b5b50919050565b7f4e487b7100000000000000000000000000000000000000000000000000000000600052603260045260246000fd5b7f4e487b7100000000000000000000000000000000000000000000000000000000600052601160045260246000fd5b6000819050919050565b600061128f8261127a565b91507fffffffffffffffffffffffffffffffffffffffffffffffffffffffffffffffff82036112c1576112c061124b565b5b600182019050919050565b7f55736572206e6f7420666f756e64210000000000000000000000000000000000600082015250565b6000611302600f83610e0d565b915061130d826112cc565b602082019050919050565b60006020820190508181036000830152611331816112f5565b9050919050565b7f4e6f20757365727320666f756e6420666f722074686973206164647265737321600082015250565b600061136e602083610e0d565b915061137982611338565b602082019050919050565b6000602082019050818103600083015261139d81611361565b9050919050565b7f456d61696c20616c726561647920696e20757365210000000000000000000000600082015250565b60006113da601583610e0d565b91506113e5826113a4565b602082019050919050565b60006020820190508181036000830152611409816113cd565b9050919050565b60008190508160005260206000209050919050565b60006020601f8301049050919050565b600082821b905092915050565b6000600883026114727fffffffffffffffffffffffffffffffffffffffffffffffffffffffffffffffff82611435565b61147c8683611435565b95508019841693508086168417925050509392505050565b6000819050919050565b60006114b96114b46114af8461127a565b611494565b61127a565b9050919050565b6000819050919050565b6114d38361149e565b6114e76114df826114c0565b848454611442565b825550505050565b600090565b6114fc6114ef565b6115078184846114ca565b505050565b5b8181101561152b576115206000826114f4565b60018101905061150d565b5050565b601f8211156115705761154181611410565b61154a84611425565b81016020851015611559578190505b61156d61156585611425565b83018261150c565b50505b505050565b600082821c905092915050565b600061159360001984600802611575565b1980831691505092915050565b60006115ac8383611582565b9150826002028217905092915050565b6115c582610e02565b67ffffffffffffffff8111156115de576115dd610c15565b5b6115e882546111eb565b6115f382828561152f565b600060209050601f8311600181146116265760008415611614578287015190505b61161e85826115a0565b865550611686565b601f19841661163486611410565b60005b8281101561165c57848901518255600182019150602085019450602081019050611637565b868310156116795784890151611675601f891682611582565b8355505b6001600288020188555050505b505050505050565b600060208201905081810360008301526116a88184610e48565b90509291505056fea26469706673582212200f5afec7ebd4787f0a7ac1d4e1ea1fb22c09dcf5ee246a5d6e74d4be884dc5c264736f6c63430008110033",
  "immutableReferences": {},
  "source": "// SPDX-License-Identifier: MIT\r\npragma solidity ^0.8.17;\r\n\r\ncontract IdentityVerification {\r\n    struct User {\r\n        string email;\r\n        bytes32 passwordHash;\r\n        bytes32 fingerprintHash;\r\n    }\r\n\r\n    //  Change mapping to store multiple users under the same address\r\n    mapping(address => User[]) private users;  // Now stores an array of users per address\r\n    mapping(bytes32 => address) private emailToAddress; // Map email to an Ethereum address\r\n\r\n    event UserRegistered(address indexed user, string email);\r\n    event LoginAttempt(address indexed user, bool success);\r\n    event FingerprintUpdated(address indexed user, string email);\r\n\r\n    function registerUser(string memory email, string memory password, string memory fingerprint) public {\r\n        bytes32 emailHash = keccak256(abi.encodePacked(email));\r\n\r\n        //  Check if email is already in use\r\n        require(emailToAddress[emailHash] == address(0), \"Email already in use!\");\r\n\r\n        //  Append new user to the user's list\r\n        users[msg.sender].push(User(email, keccak256(abi.encodePacked(password)), keccak256(abi.encodePacked(fingerprint))));\r\n        emailToAddress[emailHash] = msg.sender;\r\n\r\n        emit UserRegistered(msg.sender, email);\r\n    }\r\n\r\n    function verifyLogin(string memory email, string memory password, string memory fingerprint) \r\n        public \r\n        view \r\n        returns (bool, string memory) \r\n    {\r\n        bytes32 emailHash = keccak256(abi.encodePacked(email));\r\n        address userAddress = emailToAddress[emailHash];\r\n\r\n        if (userAddress == address(0)) {\r\n            return (false, \"User not found!\");\r\n        }\r\n\r\n        User[] memory userList = users[userAddress];\r\n\r\n        for (uint i = 0; i < userList.length; i++) {\r\n            if (\r\n                keccak256(abi.encodePacked(password)) == userList[i].passwordHash &&\r\n                keccak256(abi.encodePacked(fingerprint)) == userList[i].fingerprintHash\r\n            ) {\r\n                return (true, \"Login successful!\");\r\n            }\r\n        }\r\n\r\n        return (false, \"Invalid credentials!\");\r\n    }\r\n\r\n    function getUsersByAddress(address userAddress) public view returns (User[] memory) {\r\n        require(users[userAddress].length > 0, \"No users found for this address!\");\r\n        return users[userAddress];\r\n    }\r\n\r\n    function getUserByEmail(string memory email) public view returns (string memory, bytes32, bytes32) {\r\n        address userAddress = emailToAddress[keccak256(abi.encodePacked(email))];\r\n        require(userAddress != address(0), \"User not found!\");\r\n\r\n        User[] memory userList = users[userAddress];\r\n        for (uint i = 0; i < userList.length; i++) {\r\n            if (keccak256(abi.encodePacked(email)) == keccak256(abi.encodePacked(userList[i].email))) {\r\n                return (userList[i].email, userList[i].passwordHash, userList[i].fingerprintHash);\r\n            }\r\n        }\r\n\r\n        revert(\"User not found!\");\r\n    }\r\n}\r\n",
  "sourcePath": "D:\\KLU\\Projects\\Rustling\\Blockchain pow ZT Identity\\blockchain-zero-trust\\contracts\\IdentityVerification.sol",
  "compiler": {
    "name": "solc",
    "version": "0.8.17+commit.8df45f5f.Emscripten.clang"
  },
  "schemaVersion": "3.4.16",
  "updatedAt": "2025-03-20T05:08:17.784Z",
  "networkType": "ethereum",
  "devdoc": {
    "kind": "dev",
    "methods": {},
    "version": 1
  },
  "userdoc": {
    "kind": "user",
    "methods": {},
    "version": 1
  }
}