{
  "contractName": "IdentityVerification",
  "abi": [
    {
      "anonymous": false,
      "inputs": [
        {
          "indexed": false,
          "internalType": "address",
          "name": "user",
          "type": "address"
        },
        {
          "indexed": false,
          "internalType": "string",
          "name": "email",
          "type": "string"
        },
        {
          "indexed": false,
          "internalType": "string",
          "name": "passwordHash",
          "type": "string"
        },
        {
          "indexed": false,
          "internalType": "string",
          "name": "fingerprintHash",
          "type": "string"
        }
      ],
      "name": "UserRegistered",
      "type": "event"
    },
    {
      "inputs": [
        {
          "internalType": "address",
          "name": "",
          "type": "address"
        }
      ],
      "name": "users",
      "outputs": [
        {
          "internalType": "string",
          "name": "email",
          "type": "string"
        },
        {
          "internalType": "string",
          "name": "passwordHash",
          "type": "string"
        },
        {
          "internalType": "string",
          "name": "fingerprintHash",
          "type": "string"
        }
      ],
      "stateMutability": "view",
      "type": "function",
      "constant": true
    },
    {
      "inputs": [
        {
          "internalType": "string",
          "name": "email",
          "type": "string"
        },
        {
          "internalType": "string",
          "name": "passwordHash",
          "type": "string"
        },
        {
          "internalType": "string",
          "name": "fingerprintHash",
          "type": "string"
        }
      ],
      "name": "registerUser",
      "outputs": [],
      "stateMutability": "nonpayable",
      "type": "function"
    },
    {
      "inputs": [
        {
          "internalType": "string",
          "name": "email",
          "type": "string"
        },
        {
          "internalType": "string",
          "name": "passwordHash",
          "type": "string"
        },
        {
          "internalType": "string",
          "name": "fingerprintHash",
          "type": "string"
        }
      ],
      "name": "verifyLogin",
      "outputs": [
        {
          "internalType": "bool",
          "name": "",
          "type": "bool"
        }
      ],
      "stateMutability": "view",
      "type": "function",
      "constant": true
    },
    {
      "inputs": [
        {
          "internalType": "address",
          "name": "userAddress",
          "type": "address"
        }
      ],
      "name": "getFingerprintHash",
      "outputs": [
        {
          "internalType": "string",
          "name": "",
          "type": "string"
        }
      ],
      "stateMutability": "view",
      "type": "function",
      "constant": true
    }
  ],
  "bytecode": "0x608060405234801561001057600080fd5b50610e23806100206000396000f3fe608060405234801561001057600080fd5b506004361061004c5760003560e01c806302cdcd8914610051578063a87430ba14610081578063c0ff345e146100b3578063d637dcfa146100e3575b600080fd5b61006b60048036038101906100669190610721565b6100ff565b60405161007891906107e3565b60405180910390f35b61009b6004803603810190610096919061085c565b6101c2565b6040516100aa93929190610908565b60405180910390f35b6100cd60048036038101906100c8919061085c565b610384565b6040516100da9190610954565b60405180910390f35b6100fd60048036038101906100f89190610721565b610457565b005b6000806000803373ffffffffffffffffffffffffffffffffffffffff1673ffffffffffffffffffffffffffffffffffffffff168152602001908152602001600020905084805190602001208160000160405161015b9190610a79565b604051809103902014801561018e57508380519060200120816001016040516101849190610a79565b6040518091039020145b80156101b857508280519060200120816002016040516101ae9190610a79565b6040518091039020145b9150509392505050565b60006020528060005260406000206000915090508060000180546101e5906109a5565b80601f0160208091040260200160405190810160405280929190818152602001828054610211906109a5565b801561025e5780601f106102335761010080835404028352916020019161025e565b820191906000526020600020905b81548152906001019060200180831161024157829003601f168201915b505050505090806001018054610273906109a5565b80601f016020809104026020016040519081016040528092919081815260200182805461029f906109a5565b80156102ec5780601f106102c1576101008083540402835291602001916102ec565b820191906000526020600020905b8154815290600101906020018083116102cf57829003601f168201915b505050505090806002018054610301906109a5565b80601f016020809104026020016040519081016040528092919081815260200182805461032d906109a5565b801561037a5780601f1061034f5761010080835404028352916020019161037a565b820191906000526020600020905b81548152906001019060200180831161035d57829003601f168201915b5050505050905083565b60606000808373ffffffffffffffffffffffffffffffffffffffff1673ffffffffffffffffffffffffffffffffffffffff16815260200190815260200160002060020180546103d2906109a5565b80601f01602080910402602001604051908101604052809291908181526020018280546103fe906109a5565b801561044b5780601f106104205761010080835404028352916020019161044b565b820191906000526020600020905b81548152906001019060200180831161042e57829003601f168201915b50505050509050919050565b60008060003373ffffffffffffffffffffffffffffffffffffffff1673ffffffffffffffffffffffffffffffffffffffff16815260200190815260200160002060000180546104a5906109a5565b9050146104e7576040517f08c379a00000000000000000000000000000000000000000000000000000000081526004016104de90610adc565b60405180910390fd5b6040518060600160405280848152602001838152602001828152506000803373ffffffffffffffffffffffffffffffffffffffff1673ffffffffffffffffffffffffffffffffffffffff16815260200190815260200160002060008201518160000190816105559190610cb2565b50602082015181600101908161056b9190610cb2565b5060408201518160020190816105819190610cb2565b509050507f509c70f523067009f7db7f46db6956d7af8b679323680dc3821a8bad001ac1e1338484846040516105ba9493929190610d93565b60405180910390a1505050565b6000604051905090565b600080fd5b600080fd5b600080fd5b600080fd5b6000601f19601f8301169050919050565b7f4e487b7100000000000000000000000000000000000000000000000000000000600052604160045260246000fd5b61062e826105e5565b810181811067ffffffffffffffff8211171561064d5761064c6105f6565b5b80604052505050565b60006106606105c7565b905061066c8282610625565b919050565b600067ffffffffffffffff82111561068c5761068b6105f6565b5b610695826105e5565b9050602081019050919050565b82818337600083830152505050565b60006106c46106bf84610671565b610656565b9050828152602081018484840111156106e0576106df6105e0565b5b6106eb8482856106a2565b509392505050565b600082601f830112610708576107076105db565b5b81356107188482602086016106b1565b91505092915050565b60008060006060848603121561073a576107396105d1565b5b600084013567ffffffffffffffff811115610758576107576105d6565b5b610764868287016106f3565b935050602084013567ffffffffffffffff811115610785576107846105d6565b5b610791868287016106f3565b925050604084013567ffffffffffffffff8111156107b2576107b16105d6565b5b6107be868287016106f3565b9150509250925092565b60008115159050919050565b6107dd816107c8565b82525050565b60006020820190506107f860008301846107d4565b92915050565b600073ffffffffffffffffffffffffffffffffffffffff82169050919050565b6000610829826107fe565b9050919050565b6108398161081e565b811461084457600080fd5b50565b60008135905061085681610830565b92915050565b600060208284031215610872576108716105d1565b5b600061088084828501610847565b91505092915050565b600081519050919050565b600082825260208201905092915050565b60005b838110156108c35780820151818401526020810190506108a8565b60008484015250505050565b60006108da82610889565b6108e48185610894565b93506108f48185602086016108a5565b6108fd816105e5565b840191505092915050565b6000606082019050818103600083015261092281866108cf565b9050818103602083015261093681856108cf565b9050818103604083015261094a81846108cf565b9050949350505050565b6000602082019050818103600083015261096e81846108cf565b905092915050565b7f4e487b7100000000000000000000000000000000000000000000000000000000600052602260045260246000fd5b600060028204905060018216806109bd57607f821691505b6020821081036109d0576109cf610976565b5b50919050565b600081905092915050565b60008190508160005260206000209050919050565b60008154610a03816109a5565b610a0d81866109d6565b94506001821660008114610a285760018114610a3d57610a70565b60ff1983168652811515820286019350610a70565b610a46856109e1565b60005b83811015610a6857815481890152600182019150602081019050610a49565b838801955050505b50505092915050565b6000610a8582846109f6565b915081905092915050565b7f5573657220616c72656164792072656769737465726564210000000000000000600082015250565b6000610ac6601883610894565b9150610ad182610a90565b602082019050919050565b60006020820190508181036000830152610af581610ab9565b9050919050565b60008190508160005260206000209050919050565b60006020601f8301049050919050565b600082821b905092915050565b600060088302610b5e7fffffffffffffffffffffffffffffffffffffffffffffffffffffffffffffffff82610b21565b610b688683610b21565b95508019841693508086168417925050509392505050565b6000819050919050565b6000819050919050565b6000610baf610baa610ba584610b80565b610b8a565b610b80565b9050919050565b6000819050919050565b610bc983610b94565b610bdd610bd582610bb6565b848454610b2e565b825550505050565b600090565b610bf2610be5565b610bfd818484610bc0565b505050565b5b81811015610c2157610c16600082610bea565b600181019050610c03565b5050565b601f821115610c6657610c3781610afc565b610c4084610b11565b81016020851015610c4f578190505b610c63610c5b85610b11565b830182610c02565b50505b505050565b600082821c905092915050565b6000610c8960001984600802610c6b565b1980831691505092915050565b6000610ca28383610c78565b9150826002028217905092915050565b610cbb82610889565b67ffffffffffffffff811115610cd457610cd36105f6565b5b610cde82546109a5565b610ce9828285610c25565b600060209050601f831160018114610d1c5760008415610d0a578287015190505b610d148582610c96565b865550610d7c565b601f198416610d2a86610afc565b60005b82811015610d5257848901518255600182019150602085019450602081019050610d2d565b86831015610d6f5784890151610d6b601f891682610c78565b8355505b6001600288020188555050505b505050505050565b610d8d8161081e565b82525050565b6000608082019050610da86000830187610d84565b8181036020830152610dba81866108cf565b90508181036040830152610dce81856108cf565b90508181036060830152610de281846108cf565b90509594505050505056fea2646970667358221220cf7b3ea51f2b025570f56b4f5e865e477def538dbcb84f8cb0f12675698f75af64736f6c63430008110033",
  "immutableReferences": {},
  "source": "pragma solidity ^0.8.0;\r\n\r\ncontract IdentityVerification {\r\n    struct User {\r\n        string email;\r\n        string passwordHash;\r\n        string fingerprintHash; // Renamed to fingerprintHash\r\n    }\r\n\r\n    mapping(address => User) public users;\r\n\r\n    event UserRegistered(address user, string email, string passwordHash, string fingerprintHash);\r\n\r\n    function registerUser(string memory email, string memory passwordHash, string memory fingerprintHash) public {\r\n    require(bytes(users[msg.sender].email).length == 0, \"User already registered!\"); // Prevent overwriting\r\n    users[msg.sender] = User(email, passwordHash, fingerprintHash);\r\n    emit UserRegistered(msg.sender, email, passwordHash, fingerprintHash);\r\n}\r\n\r\n\r\n    function verifyLogin(string memory email, string memory passwordHash, string memory fingerprintHash) public view returns (bool) {\r\n        User storage user = users[msg.sender];\r\n        return keccak256(bytes(user.email)) == keccak256(bytes(email)) && keccak256(bytes(user.passwordHash)) == keccak256(bytes(passwordHash)) && keccak256(bytes(user.fingerprintHash)) == keccak256(bytes(fingerprintHash));\r\n    }\r\n\r\n    function getFingerprintHash(address userAddress) public view returns (string memory) {\r\n        return users[userAddress].fingerprintHash;\r\n    }\r\n}",
  "sourcePath": "D:\\KLU\\Projects\\Rustling\\Blockchain pow ZT Identity\\blockchain-zero-trust\\contracts\\IdentityVerification.sol",
  "compiler": {
    "name": "solc",
    "version": "0.8.17+commit.8df45f5f.Emscripten.clang"
  },
  "schemaVersion": "3.4.16",
  "updatedAt": "2025-03-11T03:04:18.489Z",
  "networkType": "ethereum",
  "devdoc": {
    "kind": "dev",
    "methods": {},
    "version": 1
  },
  "userdoc": {
    "kind": "user",
    "methods": {},
    "version": 1
  }
}